:100000000C94F0050C9437060C9437060C943706C4
:100010000C9437060C9437060C9437060C9437066C
:100020000C9437060C9437060C94E61D0C94221D94
:100030000C945E210C9437060C9437060C9437060A
:100040000C9437060C9437060C9437060C9437063C
:100050000C9437060C9411210C9437060C94370637
:100060000C9437060C9437060C9437060C9437061C
:100070000C9437060C9437060C9437060C9437060C
:100080000C9437060C9437060C9437060C943706FC
:100090000C9437060C9437060C9437060C943706EC
:1000A0000C9437060C9437060C943706870B870B95
:1000B000B70BB70B3B0C6B0D6B0D6B0D570CCB0CD3
:1000C000DC0CDC0CBC12D212D912CE13CE131113DD
:1000D0001D132C13CE133413CE13CE13CE133C1397
:1000E000221B491B041D491B041D951BB81B041D25
:1000F000BA1CCA1CD826D826EB26EB26E126EB260E
:10010000EB26EB26D826D826E626EB26EB26E62697
:100110005B735D000A0025303862003A200025300C
:100120003258000A722F632030313233343536377B
:100130000A001E0F0500047F3F1F6432146432144E
:10014000783C1E1E140A05FD377A585A000004E652
:10015000D6B4460200210116000000742FE5A3E08A
:1001600001E600DD5D003D8889C65436C3174FE4C3
:10017000E59262E106D87A0331A6BA75C3C6B465C2
:10018000646A17BB12CB7D16B4358699D1F8001C72
:1001900077D6532BA397580745C3D7A9E0ED334D26
:1001A0000E20C0B35D118826BF783056D8A0402DF0
:1001B00014F792882967B841E03ACEA46F628A0D9D
:1001C000A958BDE618BD8B15A6D08BBF08B86F78AF
:1001D000E81D04355571423A32B560A1A725CDD846
:1001E000754522D7B3255A89E7276DCE133D9E9CCE
:1001F00055C573D903A131DFD93BF6370B0235F86A
:10020000FF28DB1BBA23F1CF70EDFA717A760987EC
:10021000439B8A57F4DBAF247BEB41DC1BA61A58C7
:10022000C24EDFE7550B41FB1970A0DD37F599840D
:1002300033DA72D4DF40EE5C517C823D40A6A234BA
:10024000DF44F100000000B14FEF99A2563C3200AC
:1002500001F901E703000064724685B1C467FB023F
:100260000000000004595A2223252628292A2C2D73
:100270002F3032333536383A3B3D3E4042434547D6
:10028000494A4C4E5051535557595A5C5E6062640E
:100290006668696B6D6F71737577797B7D7F81831C
:1002A0008587898A8C8E90929496989A9C9E9FA11D
:1002B000A3A5A7A8AAACAEAFB1B3B4B6B8B9BBBC3E
:1002C000BEBFC1C2C3C5C6C7C9CACBCCCDCED0D1B3
:1002D000D2D2D3D4D5D6D7D7D8D9D9DADADBDBDBAB
:1002E000DCDCDCDCDCDDDDDDDDDCDCDCDCDCDBDB4C
:1002F000DBDADAD9D9D8D7D7D6D5D4D3D2D2D1D0A0
:10030000CECDCCCBCAC9C7C6C5C3C2C1BFBEBCBB9C
:10031000B9B8B6B4B3B1AFAEACAAA8A7A5A3A19F14
:100320009E9C9A98969492908E8C8A8987858381D8
:100330007F7D7B79777573716F6D6B6968666462B9
:10034000605E5C5A5957555351504E4C4A49474587
:100350004342403E3D3B3A3836353332302F2D2C28
:100360002A2928262523220631FF0974A1010975AF
:10037000150026FF009520750881020976150026D4
:10038000FF00952075089102C005010980A1018533
:100390000319012AB700150126B7009501751081D0
:1003A00000C0050C0901A101850419012AA002154C
:1003B0000126A002950175108100C00660FF096149
:1003C000A1010962150026FF009520750881020928
:1003D00063150026FF00952075089102C0050109EC
:1003E00006A101050719E029E71500250195087503
:1003F0000181029501750881010507190029FF1582
:100400000026FF00950675088100050819012905D9
:10041000950575019102950175039101C05B435DDE
:10042000005B445D005B535D005B575D005B525DAC
:100430000009027B00040100A0FA09040000010386
:10044000010100092111010001224000070581037B
:1004500008000A090401000203000000092111013B
:100460000001222200070582032000010705030383
:10047000200001090402000103000000092111010C
:1004800000012232000705840320000A090403004A
:1004900002030000000921110100012222000705CA
:1004A0008503200001070505032000011201000259
:1004B000000000080778CBDC0100010203011C03E7
:1004C0007600690061006C003A0066003600340076
:1004D0006300320062003300630000001403520026
:1004E00065007600690075006E0067003400310019
:1004F00000000C03670074006900700073000000C6
:10050000040309042B0014001A000800150017004A
:10051000E00004001600070009000A00E1001D00C9
:100520001B000600190005001C0018000C0012003A
:1005300013002A000B000D000E000F0033003400E2
:10054000110010003600370038002800E3002C00AE
:100550002C002C00E60000006B65796D61705F6314
:100560006F6E6669672E7261773A20253032580ABD
:100570002E737761705F636F6E74726F6C5F63610F
:1005800070736C6F636B3A2025750A2E636170730C
:100590006C6F636B5F746F5F636F6E74726F6C3AD6
:1005A0002025750A2E737761705F6C63746C5F6CC5
:1005B0006775693A2025750A2E737761705F7263DB
:1005C000746C5F726775693A2025750A2E737761BE
:1005D000705F6C616C745F6C6775693A2025750A91
:1005E0002E737761705F72616C745F726775693AC0
:1005F0002025750A2E6E6F5F6775693A2025750A8A
:100600002E737761705F67726176655F6573633AB9
:100610002025750A2E737761705F6261636B736C5E
:100620006173685F6261636B73706163653A202513
:10063000750A2E6E6B726F3A2025750A006465622A
:1006400075675F636F6E6669672E7261773A202502
:100650003032580A2E656E61626C653A2025750A43
:100660002E6D61747269783A2025750A2E6B657952
:10067000626F6172643A2025750A2E6D6F7573651D
:100680003A2025750A006565636F6E6669673A0AE8
:1006900064656661756C745F6C617965723A20257A
:1006A000750A000A092D204D61676963202D0A44EF
:1006B0003A094465627567204D657373616765200B
:1006C000546F67676C650A583A094D6174726978AE
:1006D000204465627567204D6F646520546F6767BD
:1006E0006C65202D2053686F77206B65797072657B
:1006F0007373657320696E206D6174726978206709
:100700007269640A4B3A094B6579626F61726420C1
:10071000446562756720546F67676C65202D2053B0
:10072000686F77206B65797072657373207265707E
:100730006F72740A4D3A094465627567204D6F7592
:10074000736520546F67676C650A563A095665727F
:1007500073696F6E0A533A095374617475730A436F
:100760003A09416374697661746520436F6E736FF3
:100770006C65204D6F64650A46312D4631303A096B
:1007800053776974636820746F204C6179657220B7
:10079000302D392028463130203D204C30290A3078
:1007A0002D393A0953776974636820746F204C615E
:1007B00079657220302D390A47524156453A09531E
:1007C000776974636820746F204C6179657220309A
:1007D0002028616C7465726E617465290A423A0959
:1007E0004A756D7020746F20426F6F746C6F616416
:1007F00065720A4553433A094A756D7020746F203B
:10080000426F6F746C6F616465722028616C7465EF
:10081000726E617465290A453A095072696E7420D6
:10082000454550524F4D2053657474696E67730A85
:100830004253504143453A09436C65617220454536
:1008400050524F4D0A000A092D20436F6E736F6C92
:1008500065202D0A4553432F713A09717569740A51
:10086000000A092D2056657273696F6E202D0A5695
:1008700049443A20307837383037286774697073C4
:1008800029205049443A2030784443434228526555
:100890007669756E67343129205645523A20307892
:1008A000303030310A4255494C443A2020284665C0
:1008B000622031332032303233290A4F5054494FAD
:1008C0004E533A204C5546412045585452414B45D1
:1008D0005920434F4E534F4C4520434F4D4D414EB1
:1008E00044204C544F20343039360A4743433A2091
:1008F000352E342E30204156522D4C4942433A2059
:10090000322E302E30204156525F415243483A2019
:10091000617672350A000A092D205374617475736B
:10092000202D0A686F73745F6B6579626F61726402
:100930005F6C65647328293A20253032580A6B654C
:1009400079626F6172645F70726F746F636F6C3A1B
:1009500020253032580A6B6579626F6172645F6975
:10096000646C653A20253032580A74696D65725F8F
:1009700072656164333228293A202530386C580A70
:10098000003F000A6D6F7573653A206F66660A0056
:100990000A6D6F7573653A206F6E0A000A6B657990
:1009A000626F6172643A206F66660A000A6B65794D
:1009B000626F6172643A206F6E0A000A6D61747230
:1009C00069783A206F66660A000A6D617472697808
:1009D0003A206F6E0A000A64656275673A206F6696
:1009E000660A000A64656275673A206F6E0A000A3B
:1009F0000A4A756D70696E6720746F20626F6F743C
:100A00006C6F616465722E2E2E2000433E200043E1
:100A10006C656172696E6720454550524F4D0A0002
:100A20004C25640A003F00433E2000000000000007
:100A300000000000000000000000000000000000B6
:100A40000000000000000000000000000000007E28
:100A50000F00D4FFFFFFC700000078000000000077
:100A60000000002A2B280000000000000000000009
:100A700000000000000029000000002C1E3420218E
:100A80002224342627252E362D3738271E1F2021D5
:100A900022232425263333362E37381F0405060734
:100AA00008090A0B0C0D0E0F10111213141516174E
:100AB00018191A1B1C1D2F3130232D35040506076C
:100AC00008090A0B0C0D0E0F10111213141516172E
:100AD00018191A1B1C1D2F3130354C000101010162
:100AE00001010101010202020202020202020303E9
:100AF00003030303030304040404040404050505B9
:100B0000050506060606060707070707080808087A
:100B1000090909090A0A0A0B0B0B0C0C0C0D0D0D27
:100B20000E0E0E0F0F0F10101111111212131314BD
:100B300014151516161717181819191A1A1B1B1C35
:100B40001D1D1E1E1F20202122222324242526268F
:100B5000272829292A2B2C2D2D2E2F3031323233C4
:100B60003435363738393A3B3C3D3E3F40414243CD
:100B70004445464748494A4C4D4E4F5051535455B1
:100B80005658595A5B5D5E5F616264656668696B61
:100B90006C6D6F7072737577787A7B7D7E808283DF
:100BA0008587888A8C8E8F91939596989A9C9EA023
:100BB000A2A3A5A7A9ABADAFB1B3B5B7BABCBEC030
:100BC000C2C4C6C9CBCDCFD1D4D6D8DBDDDFE2E4F9
:100BD000E7E9EBEEF0F3F5F8FAFDFFFFAA7F5540E9
:100BE00011241FBECFEFDAE0DEBFCDBF04B603FE97
:100BF00027C08091920490919304A0919404B091A5
:100C000095048730904BA740B04BD1F410929204DA
:100C100010929304109294041092950414BE84B719
:100C2000877F84BF0FB6F894A89580916000886193
:100C300080936000109260000FBEE0E0F8E3099539
:100C400011E0A0E0B1E0E2EFFDE602C005900D92F8
:100C5000AA3AB107D9F724E0AAEAB1E001C01D928F
:100C6000A239B207E1F70E94E80D0C94F7360C9414
:100C70000000FF93EF93E091AA01F091AB01309750
:100C800009F00995EF91FF910895FC01859180305D
:100C900011F0EFDFFBCF0895FF27E0E230E247FFDE
:100CA0000CC0419597FF09C0EDE260957095809565
:100CB0009095611D711D811D911D27FF02C0219519
:100CC00030E350E2AA27660F771F881F991FAA1FDB
:100CD000A41710F0A41B63955A95A9F7AA3008F041
:100CE000A95FA05DAF93F39561157105810591052D
:100CF00041F7ED3211F4EF93F395F21718F43F93A7
:100D0000F395FBCF8F91B5DFFA95E1F70895E9915F
:100D1000F9918591803021F0853219F0AADFF9CF61
:100D2000089520E0E89455915532C1F3503311F401
:100D3000689455915A3348F4505390F3220F022E81
:100D4000220F220F200D250FF4CF0EF4219589914B
:100D50009991533619F3533729F1533559F1BC01A1
:100D600088279927E8945C3621F4899199916894B1
:100D70005591543639F446EF7EF077FF0DC08FEF72
:100D80009FEF0AC055374AE039F0583540E121F06D
:100D9000523642E009F00895FF93EF937DDFEF9123
:100DA000FF91B7CFFF93EF93FC0181918030B9F3AE
:100DB00060DFFBCFFF93EF9368DFF1CFDF93CF933B
:100DC000CDB7DEB72596A3DFCF91DF9108958F923F
:100DD0009F92AF92BF92CF92DF92EF92FF920F93CA
:100DE0001F93CF93DF9300D000D0CDB7DEB7FC01C7
:100DF0008081918123813481232B31F09F3F31F415
:100E000091E08F3F19F403C091E001C090E090FDA4
:100E1000CEC67F0161E0CF010E9450308C01D70126
:100E200012968C91811105C0F701828181113EC01B
:100E3000C2C080912201909123010196A9F333E66B
:100E4000C32E33E0D32EA12CB12C992493948091FE
:100E50002201909123018A159B0534F3D601169641
:100E60008C9116978823D9F019968D919C911A9799
:100E70000817190739F480916103909162030817EC
:100E8000190769F0F601978614870387C6010E9447
:100E90002022C60106960E94D92110926003FFEF1E
:100EA000AF1ABF0A26E1C20ED11CD1CFC8018251B0
:100EB0009F45409708F09BC02EEED22ED00E87E0C3
:100EC0008D1508F482C08FEF93E00E94C535811123
:100ED0007CC007E613E0DD2071F0011594E01907EE
:100EE00009F473C0C8010E94C535811101C0DA94AC
:100EF0000F5F1F4FF0CF19821A821B821C82AA2417
:100F0000AA946801AFEFCA1ADA0AC8010E94C5356F
:100F100089831A82882309F458C0813009F046C0B9
:100F20004801B2E08B0E911CC6010E94C5358A8330
:100F3000882309F44AC09FEF980F933060F468014A
:100F4000E3E0CE0ED11CC4010E94C5358B83811114
:100F50002DC08601D6CF843011F06401FACFC401D0
:100F60000E94C535B82E6801F4E0CF0ED11CC8012F
:100F700003960E94C535BB2041F1882331F1282F0B
:100F800030E021503109A29EA001A39E500D1124F2
:100F90008B2D90E00197840F951F0197D0F2AFE958
:100FA000BFE01197F1F700C00000F7CFCE01019626
:100FB0000E949D2FCECF0031AFE51A0709F0B0C5D2
:100FC00081E00E9426290E94301A8091890487704E
:100FD00009F4EDC5F7018281882309F4E8C5809101
:100FE000AE0182FDE4C582E00E94C22EE0C5003160
:100FF000FFE51F0711F481E005C001312FE512075D
:10100000A1F482E00E943229DECF680187E5D81A78
:101010009FEFC916D10409F040F46AE372E08C2D09
:101020000E945D26892B09F482C5C80197558F3F20
:10103000910511F008F053C0209122013091230155
:101040002817390724F49093230180932201D701B4
:1010500012962C91129736E1389F5001399FB00CAF
:101060001124F501ED59FC4F6F01208B12969C91D4
:101070008681992351F1128701878F5F86830E94B1
:101080005221D6011E969C938E931D9780918D04BC
:1010900017968C9317979091600380915F03892B2B
:1010A00018968C931897ED91FC911197309741F019
:1010B00054966D917C915597C50187599C4F099520
:1010C00010936203009361030AC0882341F0818971
:1010D000882329F0C50187599C4F0E94D921033FDD
:1010E000FCE51F0759F190F4083D8CE51807E9F07D
:1010F000093D9CE51907A1F1073DACE51A07B1F5DB
:1011000006E221EE41EE67ED7CE514C0053FBCE54B
:101110001B0701F1C8F0063FFCE51F0739F507E2A0
:1011200025EE46EE66EF7CE505C007E225EE45EECE
:1011300068ED7CE5C7010E94452247CF06E221EE1B
:1011400040EE63EF7CE5F6CF07E225EE44EE64EF78
:101150007CE5F0CF06E221EE42EE65EF7CE5EACFDA
:1011600008E221E045EE69ED7CE5E4CFD701129677
:101170008C91882309F445C110925E030330BDE5CC
:101180001B0758F40A3FECE51E0760F4C8018250C3
:101190009C45449708F01FC105C00136FDE51F07B7
:1011A00009F019C10E94DF2D9093AE018093AD012B
:1011B00000312CE5120709F4CAC008F041C008301C
:1011C0009CE5190709F4A4C0F0F40430BCE51B0742
:1011D00009F48CC068F40230FCE51F0709F482C0F2
:1011E00003301C4509F0E7C08091AD018260E1C089
:1011F00006308CE5180709F483C008F085C080919B
:10120000AD018860D6C00C30ACE51A0709F490C077
:1012100068F40A30ECE51E0709F47EC008F084C0CB
:101220000E9441298091AD018068C3C00E302CE539
:10123000120709F481C008F086C08091AD0194C006
:101240000C3F9CE5190709F47BC038F50431BCE577
:101250001B0709F49AC058F40231FCE51F0709F492
:101260007AC008F07EC08091AD018F7BA2C00A3F9A
:101270008CE51807F1F108F03FC005311C4509F075
:101280009AC08091AD0182FB222720F991E092273C
:1012900090FB82F990FB83F98CC00115BDE51B071B
:1012A00009F467C050F48091AE010E3FFCE51F07C2
:1012B000C1F108F05BC08D7F65C002308DE5180775
:1012C00009F471C008F46DC001361D4509F073C002
:1012D0008091AD0184FB222720F991E0922790FBB9
:1012E00084F967C08091AD01816063C08091AD01D8
:1012F00016C08091AE0116C08091AE01826042C0DE
:101300008091AD01806155C08091AD01806251C076
:101310008091AD0180644DC08091AD018860846092
:1013200048C0826081602EC08091AD018E7F41C037
:101330008091AD018D7F3DC08091AD01877F39C027
:101340008091AE0114C08091AD018F7E32C080913A
:10135000AD018F7D2EC00E9441298091AD018F7714
:1013600028C08091AD01877F8B7F23C08D7F8E7FCA
:1013700009C08091AE01982F909591708E7F892B36
:1013800090FB81F98093AE0116C00E9441298091A3
:10139000AD0187FB222720F991E0922790FB87F986
:1013A00008C061E001C060E08EE090E00E94D935A5
:1013B00002C08093AD016091AD011091AE0184E057
:1013C00090E00E94D935612F82E290E00E94D935E9
:1013D0000E944129FACD80915F030631BCE51B07CD
:1013E00041F58A7A91E009F490E09093AC0188236A
:1013F00011F065E301C069E284E394E00E94872173
:1014000015C006311C4509F030C18091AC0188231C
:1014100009F4CBC385E3E4E3F4E09281891301C0CE
:1014200012823196B4E0EA33FB07B9F70E947E2EB0
:10143000CCCD82720C3CECE51E0709F4C4C008F068
:1014400045C0063C2CE5120709F4A9C0D8F4033CBA
:10145000ACE51A0709F499C030F4023CECE51E072C
:1014600009F46EC0D1C0043CFCE51F0709F492C02A
:10147000053C2CE5120709F0C7C040EF54E369EFC3
:1014800074E3A5C0093C9CE5190709F492C078F4FF
:10149000073CBCE51B0709F487C0083CECE51E07C8
:1014A00009F0B2C044EE54E368ED74E390C00A3C26
:1014B000FCE51F0709F482C00B3C2CE5120709F07C
:1014C000A3C044E453E365E573E381C0013D8CE5CB
:1014D000180709F488C0A0F40E3CACE51A0709F41B
:1014E0007CC008F477C00F3CECE51E0709F478C017
:1014F000003DFCE51F0709F087C06EE089E081C070
:10150000043D2CE5120709F474C068F4023D9CE523
:10151000190709F46BC0033DACE51A0709F074C064
:1015200061E088E16BC0053DBCE51B0709F464C0C0
:101530000D35EDE51E0709F067C06AE285E261C07E
:1015400080912D0280FF1BC08E7F80932D026091C1
:101550002D0270912E0280912F02909130020E94F4
:1015600032331092D101FFEF20E782E0F1502040AA
:101570008040E1F700C000000E94B11726CD8160D5
:1015800080932D0261E0869539C04DE355E366E412
:1015900075E31DC046E455E36DE375E318C049EFFC
:1015A00054E360EF74E313C048ED54E364EE74E376
:1015B0000EC040EC54E36CEC74E309C04CEC54E313
:1015C00060EC74E304C045E553E364E473E30E9414
:1015D0009517FBCC61E081E011C065E082E011C0AD
:1015E00068E086E00EC064E18FE00BC067E185E152
:1015F00008C062E289E105C061E083E20E94023531
:10160000E4CC0E948317E1CC0A359DE5190741F12E
:1016100050F40115BCE51B07A9F00E3D1C4529F54A
:101620000E94FB2DD2CC0B35FDE51F07D9F00C3500
:101630001D45D9F48091AE0182FB882780F991E0A5
:10164000892711C00E9441298FEF94E3ACE08150BB
:101650009040A040E1F700C000000E940021B5CCFE
:1016600081E001C080E00E94DF2EF7018681978132
:101670000097C9F4D70112968C9112970D911C9185
:10168000882349F0C8010E948026D82E682FC801FF
:101690000E94F42804C0C8010E94C428D82EB801B2
:1016A0008D2D0E94AC250E94562C8C01F701C28022
:1016B000D580D2949FE0D922809189048770B9F0B7
:1016C000CC20A9F0812F807F803421F080E2800F30
:1016D000883068F08091AE0182FD09C082E00E94EE
:1016E000C22E809189048770BB24B3948111B12CE0
:1016F000A12EA2948FE0A8228A2D90E08C30910533
:1017000008F0E9C1FC01EA5AFF4F0C94BA36812F68
:10171000807F1F70882311F01295107FCC20B9F0C4
:10172000112309F4C5C180E2800F883010F0011147
:1017300006C090915F03192B10935F0305C0909131
:101740006003192B109360030E947E2EB1C1802F7D
:101750000E94F429112309F4BEC180E2800F883071
:1017600060F1002351F1812F0E94702E29C0812F3A
:10177000807F1F70803211F01295107F002321F0BE
:10178000013009F45EC069C08091AE0182FF1BC0C8
:10179000CC2069F0112339F090915F03192B10933D
:1017A0005F030E947E2E80E00E94252A94C180E083
:1017B0000E94F429112309F48EC1812F0E94772EF3
:1017C0000E947E2E88C1CC2031F1DD2001F1F1E0B4
:1017D000DF120FC080918D04182B181709F47BC1FC
:1017E0000E94522190938C0480938B0410938D045B
:1017F00072C125E0D2120BC00E94652E8091860432
:10180000181310938604812F0E94EA2964C18091E5
:101810008D04812BF9CFDD2051F081E0D8120DC06D
:1018200080915F03812309F456C10E94122F0E9408
:10183000652E812F0E94E3294EC195E0D912F7CF82
:101840004AC1CC2029F0A5E0AD1508F444C1DBCF96
:10185000B4E0BD1508F43FC1ECCFCC2049F0DD2049
:1018600091F2F701858180FF23C18F708583CBCFF3
:10187000D11023C1DECF812F86958695837019F014
:10188000813059F028C1CC2019F0C801937002C0F2
:1018900080E090E00E94B72124C1CC2019F0C8015B
:1018A000937002C080E090E00E94A1211AC1812FB4
:1018B0008370A9F5C11013C1402F4295469547701A
:1018C000440F440F802F8F7090E09C01042E01C0C4
:1018D000220F0A94EAF704FF08C08FE090E001C0ED
:1018E000880F4A95EAF7809501C080E01695169515
:1018F0001370123069F088F490918E04113019F051
:10190000822B892302C0922B892B0E943D29E7C09C
:10191000822B90918E048927F8CF822BF6CFCC2092
:1019200019F0812F817001C08695882309F4D7C0F2
:10193000402F429546954770440F440F802F8F707B
:1019400090E09C01042E01C0220F0A94EAF704FFE4
:1019500008C08FE090E001C0880F4A95EAF78095B3
:1019600001C080E0169516951370123059F078F486
:101970009091AD02113019F0822B892309C0922B6E
:10198000892B06C0822B9091AD02892701C0822B42
:101990000E942229A4C01F70CC2039F0812F0E9400
:1019A0003229802F0E94EA299AC0802F0E94E329C1
:1019B000812F0E94262993C0023F61F128F4003F45
:1019C00041F0013F01F16FC0033F59F1043FB9F00D
:1019D0006AC0CC2079F094E09D1508F47CC01F719A
:1019E00081E090E001C0880F1A95EAF79091AD026E
:1019F000892721C0A5E0AD1508F46DC0F0CF809116
:101A0000AE0182FF1BC0CC2039F0812F8F710E9464
:101A1000322961C0CC20C9F3812F8F710E94262901
:101A20005AC0CC2039F01F7181E001C0880F1A958F
:101A3000EAF701C080E00E9422294DC0CC20D9F0F5
:101A4000809186040E94772E80918904877084306B
:101A500039F40E94BB2E812F8F710E9426295EC00F
:101A6000B4E0BD1508F45AC01F71812F0E943229BD
:101A700063E0812F11C090915F0380918604892BD0
:101A800080935F03E4E0ED1550F40E94BB2E0E94AA
:101A9000122F64E0812F8F710E94FC2E3FC081E0E5
:101AA0000E94C22E3BC0CC2029F0DD2009F4ADCF2E
:101AB000802F7ACEDD2009F4AFCF093349F4FFEF50
:101AC00027EE83E0F15020408040E1F700C00000A5
:101AD000802F0E94F42988EF8A0D843010F40E9430
:101AE000CD21BB20B1F08091890480FD12C0D701C7
:101AF00012961C928595859585950E943229C7017D
:101B00000E94E706809189048595859585950E94B8
:101B1000262960E0C7010E94503049C0B12CDFCFB8
:101B20000131BFE51B0709F070CA82E04ACA86E1AD
:101B30008C9DF0018D9DF00D1124ED59FC4F868197
:101B40008130E1F480913A0290913B02892B09F4B3
:101B50006CCA80913C0290913D02892B09F465CAC0
:101B600080913E0290913F02892B09F05ECA8091DC
:101B7000400290914102892B59F057CA823009F0F6
:101B800054CA80913E0290913F02892B09F44DCABC
:101B900026E12C9DC0012D9D900D11248D599C4F47
:101BA000FC01108A0E94202240CA89E234CC0F90A6
:101BB0000F900F900F90DF91CF911F910F91FF9099
:101BC000EF90DF90CF90BF90AF909F908F9008954F
:101BD000CF93DF93CDB7DEB7E7970FB6F894DEBFAC
:101BE0000FBECDBF84B7877F84BF0FB6F894A8958A
:101BF00080916000886180936000109260000FBE49
:101C000090E080E80FB6F8948093610090936100B3
:101C10000FBE85B7806885BF85B7806885BF85E7BB
:101C20009FE19093AB018093AA010E94E7160E9466
:101C30008E160E94661D0E94851D8091E2008460C0
:101C40008093E20078948091A3028823A1F0109100
:101C5000E9001F709091EC00892F817090FD80E861
:101C6000182B1092E9008091E80083FD0E943B1A36
:101C70001F701093E90082E084BD93E095BD9AEF58
:101C800097BD80936E000E946A17811102C00E9466
:101C90005B170CE211E083E3E82E81E0F82ED80117
:101CA0008D918D018F3F11F00E94172BE016F106E8
:101CB000B1F703E311E0F80181918F018F3F11F03B
:101CC0000E94172BF1E009331F07A9F787E0E3EC27
:101CD000F1E0DF01282F1D922A95E9F7EFEAF1E004
:101CE000DF011D928A95E9F70E94F02D811102C053
:101CF0000E94FB2D82E090E00E94C53580935B033B
:101D00000E94DF2D9093AE018093AD010E942E2B97
:101D1000EFE3FCE93197F1F700C000000E942E2BA1
:101D20008091C30180FF08C06FEF7FEF80E090E0FB
:101D30000E94F7350E94002183E090E00E94C535A3
:101D40000E943D298091B601811133C00E94F02D7F
:101D5000811104C00E94FB2D0E94663388E090E050
:101D60000E94CD3560932D0270932E0280932F0236
:101D7000909330026E7F71F40E94663388E090E0A9
:101D80000E94CD3560932D0270932E0280932F0216
:101D9000909330020E941F331092D10180912D0246
:101DA00080FF04C060E086950E94023581E0809348
:101DB000B60184E091E090931604809315048E019F
:101DC0000F5F1F4F1E01FAE02F0E311C8091A302FE
:101DD000853009F07BC080E191E00E944506F0E487
:101DE000DF2ECC24C394A0E1EA2EB2E1FB2E809139
:101DF000A302853009F055C08091A302843009F414
:101E00003FC01092D1018091B801811116C0C092DB
:101E1000B80180912D02982F91709093B7018E7F19
:101E200080932D022FEF80E792E021508040904078
:101E3000E1F700C000000E94B11710921904A8E158
:101E4000B0E00FB6F894A895A09360000FBED092B2
:101E5000600083B7817F846083BF83B7816083BF65
:101E60007894889583B78E7F83BF0FB6F894A89532
:101E700080916000886180936000109260000FBEC6
:101E80008091A202882309F4B2CF0E942E2BE3ECAA
:101E9000F1E081918111AAC4B1E0EA3CFB07C9F7E6
:101EA000A6CF0E9441290E94CD211092B8018091B5
:101EB000B701882349F080912D02816080932D0223
:101EC00060E086950E9402350E949B170E942E2B8F
:101ED00081110E94462173EC472E71E0572EEAEBE8
:101EE000AE2EE1E0BE2E3201E12CF12CEFAAD3019F
:101EF000ED913D01EEABD5018D915D01E827EDAB94
:101F0000E11118C0BFEFEB1AFB0AE7E0EE16F1048F
:101F100069F78FEF88AB89AB1AAA0E9452218160C2
:101F2000782F9CAB8BAB48A959A96AA98CA90E94B0
:101F300087305FC080915B0381FD04C080E0DD24B9
:101F4000D39439C083E291E00E94450663EC862E6B
:101F500061E0962EC12CD12CDF92CF928EE191E0E0
:101F60009F938F930E94DE068BE191E00E944506CD
:101F7000F40181914F010E948B2F1F928F9386E174
:101F800091E09F938F930E94DE0684E191E00E948E
:101F90004506BFEFCB1ADB0A0FB6F894DEBF0FBEC3
:101FA000CDBFF7E0CF16D104B9F6C8CF8F5FDD0CF7
:101FB000863009F4A7CF9DA99D21C1F38BA72FA936
:101FC0002CA79EA99D2181E009F480E08DA70E94A5
:101FD00052218160782F9FA78EA74BA55CA56DA588
:101FE0008FA50E948730F701E654FE4F8081D826E6
:101FF000D0828091D101882309F4AAC08091D001B8
:10200000E0912D02E695E81BE093CC01823059F473
:10201000F0E0ED5BFE4FE491EE2EF12C56E1C52E83
:1020200056E1D52E70C0863059F4F0E0E05CFE4FEA
:10203000E491EE2EF12C46E0C42E46E1D42E63C08E
:10204000893061F4E695F0E0E35CFE4FE491EE2E1A
:10205000F12C36E0C32E3AE1D32E55C08F3061F417
:10206000E695F0E0E65CFE4FE491EE2EF12C29E9D6
:10207000C22E29E1D22E47C0853159F4F0E0E95C47
:10208000FE4FE491EE2EF12C9BE4C92E99E1D92E5E
:102090003AC08831F9F0833249F4E5E3F1E0E590A4
:1020A000F49086ECC82E85E1D82E2DC08432D1F074
:1020B000853209F58E2F63E00E947836E92FF0E033
:1020C000EE5CFE4FE491EE2EF12CB7EECB2EB7E195
:1020D000DB2E19C0F8E2EF2EF12CA2ECCA2EA8E1FB
:1020E000DA2E11C074EFE72EFF24F394E8E8CE2E29
:1020F000E8E1DE2E08C050EDE52E57E0F52E6EE14A
:10210000C62E64E1D62E8091CD01882361F0109215
:10211000CD010E9452219093CB018093CA0110926D
:10212000CF011092CE010E945221E091CA01F0919C
:10213000CB018E1B9F0B8F3F9F4750F4EE0EFF1E6F
:10214000F092CB01E092CA018AEC91E0F601099588
:102150000E94CD219091B901891721F00E94CD21D3
:102160008093B9018091A302843009F02FCE83E0DF
:102170008093E9008091E80082FF28CE8091E800FA
:1021800085FF23C00E94111F81111DC040E2E42E73
:10219000F12CCE0101966C0109C08091F100D601AD
:1021A0008D936D01B1E0EB1AF10869F08091E800C0
:1021B00085FDF3CF8091E8008B778093E8000E9443
:1021C000111F882399F391E001C090E08091E8000D
:1021D0008B778093E800992309F4F8CDE090B00262
:1021E000F090B1028981E114F10461F08E3F09F0B1
:1021F000D5C28A81833008F4B3C18550833008F09A
:10220000CDC2AEC1893009F4E2C0D0F4843009F403
:1022100066C050F4823099F108F052C0813009F064
:10222000BBC21A8289E01EC2863009F46AC008F473
:102230005DC0873009F468C0883009F4A7C0ACC21B
:10224000803109F42AC178F48D3009F4CBC020F430
:102250008C3009F425C1A0C28E3009F4C6C08F307D
:1022600009F4EDC099C2823109F41CC108F418C107
:10227000833109F441C18E3F09F472C18DC28A8154
:10228000823009F4D2C2833051F0813009F084C227
:102290000E9446219B838C837D836E837FC28091C5
:1022A000200190912101892B09F478C2FE01339617
:1022B000D2018D912D018193E215F305C9F76EC20C
:1022C0008A81823009F068C26B817C818D819E8118
:1022D0000E94C03686E290E00E94D9355FC24C81F0
:1022E0006B818A810E9460169D83A6C22D813E81EA
:1022F0003227232732274C816B818A810E942A163C
:102300004DC20E94C8254AC28A818138B1F050F47A
:10231000803809F043C220E04B8160912F02809108
:102320002E0231C0823859F1833809F037C220E0DB
:10233000409130026C818B8126C060E08B810E94CD
:1023400002359B8180912D02911111C08E7F809367
:102350002D021092D101BFEFE0E7F2E0B150E04072
:10236000F040E1F700C000000E94B11717C2816081
:1023700080932D0260E086950E9402350FC28B810A
:10238000809331020BC20E94253408C28A818138B1
:1023900099F030F4803809F001C28091300262C1B6
:1023A000823891F0833809F0F9C180912E028B8335
:1023B00080912F028C83F2C180912D0280FF02C098
:1023C000869550C180E04EC1809131024BC1609131
:1023D0002D0270912E0280912F02909130020E9466
:1023E0003233DCC11A8289E93DC1EA80FB80FE24D8
:1023F000EF24FE24AC80B12C2DE1A216B10408F02C
:10240000CDC16801C70189599C4F9601201B310B32
:102410002A153B0508F0C2C1A9E9EA16F10428F41F
:102420000E94C535F601848303C0D60114961C9220
:10243000BFEFEB1AFB0AEFEFCE1ADE0AE3CF809173
:10244000200190912101892B09F4A8C1EA80FB8029
:10245000FE24EF24FE24CC80D12CFDE1CF16D10444
:1024600008F09CC15801C70189599C4F9501201B58
:10247000310B2C153D0508F091C129E9E216F10454
:1024800028F4D50114966C910E94D935BFEFEB1A50
:10249000FB0AEFEFAE1ABE0AE6CF0E949C257EC172
:1024A00088E018C1EA80FB80FE24EF24FE24AC8083
:1024B000B12CFDE1AF16B10408F070C16801C7018D
:1024C00087969601201B310B2A153B0508F066C143
:1024D00020EAE21622E0F20630F40E94C535D60169
:1024E00014968C9302C0F6011482FFEFEF1AFF0AD4
:1024F0002FEFC21AD20AE3CFEA80FB80FE24EF243A
:10250000FE24CC80D12C8DE1C816D10408F046C140
:1025100090EAE91692E0F90608F040C180EA92E0FC
:102520008E199F098C159D0508F438C15801C70103
:1025300087969501201B310B2C153D0508F02EC107
:10254000A0EAEA16A2E0FA0620F4F50164810E94EE
:10255000D935FFEFEF1AFF0A2FEFA21AB20AE7CF21
:10256000EA818E2F90E08E30910508F017C1FC01B2
:10257000EE59FF4F0C94BA3688E0E4E2F1E0DE0158
:10258000919601900D928A95E1F780E2D8011D9213
:102590008A95E9F784E0898388E0FE01B196DE013F
:1025A0001596D6C080E2898381E08A831B821C82D3
:1025B000F5C08C8190E0982F88272B81820F911D88
:1025C000092E000CAA0BBB0B35E0880F991FAA1F20
:1025D000BB1F3A95D1F7AC01BD01405E5F4F6F4F15
:1025E0007F4F481759076A077B0708F4D7C0803226
:1025F000E1E09E07A105B10508F0D0C04132F1E04D
:102600005F076105710520F040E251E060E070E095
:10261000481B590BBC01695B7E4FC8010E94AC3559
:10262000BDC040E250E06FEF70E0C8010E94F0369C
:10263000809120018983EA82B1C081E090E090938B
:10264000B1028093B00282E390E09093C201809344
:10265000C1010E945221A2C0809120018983EA8297
:102660008091C1018B839AC040E250E06FEF70E02F
:10267000C8010E94F03692C08B81823069F1E8F483
:10268000882309F1813009F089C08C819AE0D92E24
:102690007E01B1E2EB0EF11CF7012D2D11922A956E
:1026A000E9F7B7010E945D268983F701DE011296E2
:1026B00001900D92DA94E1F771C0833061F18430BA
:1026C00009F44BC06BC080E2D8011D928A95E9F7EE
:1026D00088E089838A8362C06C818AE0FE01359636
:1026E000DE01919601900D928A95E1F7683070F4C1
:1026F0008AE0689FB001112469537D4F4AE050E0A1
:10270000CE0181960E94FD3580E001C08FEF898364
:102710000E94E71643C06C81CE0181962AE0DC015D
:102720001D922A95E9F7683060F4BAE06B9FB0011A
:102730001124695E7C4F4AE050E00E94B53580E08C
:1027400001C08FEF89838AE0FE01B196DE01129607
:1027500001900D928A95E1F721C06C818AE0FE011B
:102760003596DE01919601900D928A95E1F76830D9
:1027700070F4EAE06E9FB0011124695E7C4F4AE07C
:1027800050E0CE0181960E94FD3580E001C08FEFC0
:1027900089830E948E1602C08FEF89838091A302E5
:1027A000843009F013CB8091E9008F702091EC0008
:1027B000922F917020FD90E8F92EF82A82E0809304
:1027C000E9008091E80080FF0CC040E050E060E24A
:1027D00070E0C8010E94441F8091E8008E778093CA
:1027E000E8008F2D8F708093E900F0CAE9BCF9BC36
:1027F00009B400FEFDCF8091D8008F7D8093D80072
:102800008091E00082608093E0008091E00081FD93
:10281000FCCF0E944129EFEFF3EC29E0E150F040BA
:102820002040E1F700C00000E2CA86E290E00E948A
:10283000C5351B821C821D828E83B0CF08950F93F5
:102840001F93CF93DF9300D000D01F92CDB7DEB798
:102850008C019093AF028093AE02011580E21807BD
:1028600038F5802F0E94F429C801805E91090897ED
:1028700018F00115110571F4C8010E94E1320F90A2
:102880000F900F900F900F90DF91CF911F910F91AC
:102890000C94E329C8010E94E1320F900F900F9031
:1028A0000F900F90DF91CF911F910F910C94D2292F
:1028B0008EEF89838A831B820E9452218160782F48
:1028C0009D838C8349815A816B818D810E948730E1
:1028D0000F900F900F900F900F90DF91CF911F915D
:1028E0000F9108950F931F93CF93DF938C01EB010A
:1028F0006AE372E08C2F0E945D26892B09F040C0AC
:10290000DD27CE5CDD4F8881F8011082188283308C
:1029100079F048F4813041F1823091F580913C02A8
:1029200090913D0209C0843051F08530E9F028C013
:1029300080913E0290913F020097B1F01BC08091C0
:102940004002909141020097A9F420913A023091FF
:102950003B0280913C0290913D022115310541F0EE
:10296000009741F4C90106C080913A0290913B0260
:10297000009731F0DF91CF911F910F910C941F14AC
:10298000DF91CF911F910F9108950F931F93CF93D4
:10299000DF9300D000D01F92CDB7DEB78C019093AB
:1029A000AF028093AE02011580E21807F8F4C80167
:1029B000805E9109089718F00115110531F4C801DE
:1029C0000E94E1320E94EA2905C0C8010E94E1325A
:1029D0000E94D929802F0F900F900F900F900F9089
:1029E000DF91CF911F910F910C94252A8EEF89834F
:1029F0008A8381E08B830E9452218160782F9D839E
:102A00008C8349815A816B818D810E9487300F9020
:102A10000F900F900F900F90DF91CF911F910F911A
:102A20000895CF93DF93EC010E94C514CE01DF918E
:102A3000CF910C941F140F931F93CF93DF938C01AE
:102A4000862F6AE372E00E945D26892BD1F4C09143
:102A50003A02D0913B022097A1F0F80180818330A7
:102A600039F4CE010E941115CE010E94111502C049
:102A7000843038F0CE01DF91CF911F910F910C94EB
:102A80001115DF91CF911F910F9108950F931F930F
:102A9000CF93DF938C01EB016AE372E08C2F0E94ED
:102AA0005D26892B09F06DC0DD27F801808181301A
:102AB00041F49185911115C09285992391F082E09E
:102AC00010C0823049F4F8018185811107C08285E8
:102AD000811106C083E005C086E003C085E001C027
:102AE00084E0CE5CDD4F88838330B1F028F4813000
:102AF00071F0823031F045C08430A9F0853079F131
:102B000040C080913C0290913D020097A1F58091D8
:102B10003A0290913B0220C080913E0290913F0288
:102B20000097E9F028C080914002909141020097FF
:102B300011F580913A0290913B02009749F00E9472
:102B4000111580913C0290913D02009781F013C0D5
:102B500080913C0290913D02009799F00CC08091C9
:102B60003A0290913B02009761F00E94111580910A
:102B70003A0290913B02DF91CF911F910F910C94FB
:102B8000C514DF91CF911F910F9108950F931F935B
:102B9000CF93DF9300D01F92CDB7DEB78C01809129
:102BA000D40181110AC09E012F5F3F4F4FEF6FEF9D
:102BB0000E9475338A818093D401F8018481813029
:102BC00051F028F0823061F44091D4010AC0809124
:102BD000D40140E007C06091D40140E080E003C030
:102BE00040E080E060E00E940E33F801848190E0D4
:102BF000019663E070E00E94A63684830F900F90E8
:102C00000F90DF91CF911F910F910895CF93DF9394
:102C1000EC01EDE2F2E0438162818C810E940B3491
:102C20008C818F5F8C83DF91CF910895CF93DF9359
:102C3000EC01EC81F0E0E959FD4F4491EDE2F2E066
:102C4000628181810E940B348C818F5F8C83DF9144
:102C5000CF9108950F931F93CF93DF93883058F54A
:102C6000673048F5463038F521159CE5390731F4D1
:102C7000E0912001F0912101EF2BE9F08901C42FAF
:102C8000D0E0CC0FDD1F9CE0699FC00DD11D112449
:102C900094E5899FC00DD11D1124612FCE01879627
:102CA0000E94D935602FCE018896DF91CF911F9178
:102CB0000F910C94D935DF91CF911F910F91089509
:102CC0000F931F93CF93DF93883008F56730F8F4A4
:102CD0004630E8F4C42FD0E0CC0FDD1F2CE0629F1B
:102CE000C00DD11D112434E5839FC00DD11D1124C9
:102CF000CE0187960E94C53590E0182F0027CE019F
:102D000088960E94C5359801282BC90102C080E031
:102D100090E0DF91CF911F910F910895CF92DF92B4
:102D2000EF92FF920F931F93CF93DF93CDB7DEB750
:102D30002A970FB6F894DEBF0FBECDBF80E5E4E45E
:102D4000F2E0DF011D928A95E9F788E3E6E1F3E01E
:102D5000DF011D928A95E9F784E4C82E82E0D82E1F
:102D60007F0107E113E0F701D182C0824AE050E021
:102D7000B801CE0101960E94B53588E0FE0131967A
:102D8000D60101900D928A95E1F789859A85D70140
:102D900013969C938E931297BAE0CB0ED11CE7E06A
:102DA000EE0EF11C065F1F4F0736F3E01F07D9F642
:102DB0002A960FB6F894DEBF0FBECDBFDF91CF913C
:102DC0001F910F91FF90EF90DF90CF9008958F9219
:102DD0009F92AF92BF92CF92DF92EF92FF920F93AA
:102DE0001F93CF93DF93CDB7DEB72A970FB6F89432
:102DF000DEBF0FBECDBF03E613E0E12CF12C8BE16B
:102E0000C82E85E1D82E96E4A92E95E1B92E22E7A9
:102E1000822E24E1922EF801D182C082B382A28256
:102E200095828482F58AE48ABE016F5F7F4F8E2D82
:102E30000E945D26892B29F489859A85F801938B58
:102E4000828BFFEFEF1AFF0A0A5E1F4F88E0E81639
:102E5000F10409F72A960FB6F894DEBF0FBECDBF76
:102E6000DF91CF911F910F91FF90EF90DF90CF9066
:102E7000BF90AF909F908F900895CF93C82F8111EE
:102E800002C06FEF01C06EE783E290E00E94D93587
:102E9000C11102C06FEF01C067EE84E290E00E94B2
:102EA000D935C11102C06FEF01C067E285E290E041
:102EB000CF910C94D93580E00E943D1760E086E206
:102EC00090E00E94D9350E94C8250E949C2581E08F
:102ED0000C943D1783E290E00E94C5358E3781F453
:102EE00084E290E00E94C535873E51F485E290E08F
:102EF0000E94C53591E0873209F090E0892F01C02A
:102F000080E08170089590912D0290FF04C0969505
:102F1000981740F003C0811105C090E0961710F497
:102F20000C94463561E00C940235882311F0FA01C7
:102F300001C0FB01099460912D02669570E04BE0A1
:102F400050E080E191E00E94D636892B19F481E0AF
:102F50008093D1010E9452219093CB018093CA01AA
:102F6000089580912D0280FF0AC0539A8BB1877F0C
:102F70009BB198602FB7F894E5EDF1E00BC0E5ED5B
:102F8000F1E0118210821282339631E0E63FF307BE
:102F9000C1F7EBCF31E0E63FF30789F0319148E02C
:102FA0009BB9000000C037FF8BB9330F000000C091
:102FB00000C000C08BB900C04A9591F7EBCF2FBF7E
:102FC0008FE594E00197F1F700C0000008959F920B
:102FD000AF92BF92CF92DF92EF92FF920F931F9327
:102FE000CF93DF93FC01A280948081E08483E7E6A5
:102FF000F2E0B490E6EEF2E0E491C6EFD1E0F5ED58
:10300000EF2EF1E0FF2ECC24CA94D12CEB190E2F19
:1030100010E022E02A1530F080912E028883809102
:103020002F028983911003C01B821A8255C08B81A5
:103030008823F9F081508B832FEF829FC0011124E8
:103040006C8170E00E949236FB01FF27E959FD4F29
:103050008491E82FEB192FEFE29FC0011124B801F2
:103060000E94923680913002689FB00111247A83C9
:1030700033C00E949C35209130022695215830E0C3
:10308000A901440F551F322F2227240F351F232F4C
:1030900033278217930704F582E08A1588F40E948B
:1030A0009C35B6010E94A63688830E949C352091EB
:1030B0002F022695622F70E00E94A636280F2983E2
:1030C0001A8280913002843120F0893C18F088EC1B
:1030D00001C084E18C838B8397014A816981888157
:1030E0000E947533259623E0E20EF11C82E0CD327A
:1030F000D80709F08ECFDF91CF911F910F91FF90EC
:10310000EF90DF90CF90BF90AF909F900C94B1174D
:10311000EF92FF920F931F93CF93DF938C01C5ED36
:10312000D1E0E12CF12CF8018481F5E0EF16F104F7
:103130001CF4882339F002C0811104C09E01409123
:10314000300202C09E0140E060912F0280912E0269
:103150000E9475338FEFE81AF80A23969BE0E91670
:10316000F10409F70E94B117F801848190E00196FB
:10317000817099278483DF91CF911F910F91FF90E8
:10318000EF9008958F929F92AF92BF92CF92DF926D
:10319000EF92FF920F931F93CF93DF93EC014C813B
:1031A000042F10E09801D8010E9469369B01AC0100
:1031B0000E9434366B017C01E0E2F0E0E01BF10B91
:1031C000A5E5B0E09B01AC010E9434364B015C01E7
:1031D0009F01DF010E94C7369B01AC010E943F3670
:1031E0009B01AC012C0D3D1D4E1D5F1DC501B401A1
:1031F0000E944736822FF22E99E2921728F093E030
:10320000299F900111240DC025E530E0281B3109CC
:10321000C901880F991F280F391F37FF02C02F5F80
:103220003F4F35952795122F109595EDC92E91E0BA
:10323000D92E00E085E5E82EEF1801FD02C08E2DA5
:1032400001C08F2D9601412F60912F020E9475338E
:103250000F5F83E0C80ED11C0B3079F70E94B117C5
:103260008C81811102C091E003C0803219F49FEF7C
:1032700090931D0190911D01890F8C83DF91CF9157
:103280001F910F91FF90EF90DF90CF90BF90AF9084
:103290009F908F9008950F931F93CF93DF93C5ED69
:1032A000D1E0FE01118210821282339681E0E63F66
:1032B000F807C1F700E010E08091D301082E000C60
:1032C000990B0817190794F080911C01082E000C27
:1032D000990B8017910754F09E0140913002609144
:1032E0002F0280912E020E94753303C0198218822A
:1032F0001A820F5F1F4F23960B301105E9F60E94CB
:10330000B11780911B019091D301980F9093D30135
:1033100020911C01280F20931C01121614F49A30DE
:103320001CF0819580931B01DF91CF911F910F912C
:103330000895BF92CF92DF92EF92FF920F931F9367
:10334000CF93DF93FC01828180FF03C0DD24DA94F8
:1033500002C0DD24D39405ED11E0C0E0D0E02BE005
:10336000B22EF80111821082128294E0E92EF12C23
:10337000C12C8091D2018C0D8C302CF06B2D0E94D1
:103380008436892F02C087FD855F082E000C990BBB
:10339000C817D90791F4809130028E9DA0018F9DAE
:1033A000500D112455954795559547959801609175
:1033B0002F0280912E020E947533CD0CF1E0EF1A9E
:1033C000F108B9F621960D5F1F4FCB30D10549F6B4
:1033D0000E94B1178091D20191E0D91206C08111EB
:1033E00002C08AE007C0815005C090E00196BE018E
:1033F0000E94A6368093D201DF91CF911F910F9149
:10340000FF90EF90DF90CF90BF900895EF92FF92E2
:103410001F93CF93DF93EC0185EDE82E81E0F82E2A
:1034200010E08C8197014091300260912F02810F52
:103430000E947533195E83E0E80EF11C1D3F89F789
:103440000E94B1179A818C8190FF02C08F5F01C0EA
:1034500081508C83DF91CF911F91FF90EF90089561
:103460008091AD02982F9670963011F4886001C05B
:10347000877F0C9422291F93CF93DF93CDB7DEB7BC
:10348000AA970FB6F894DEBF0FBECDBFE5EAF2E013
:103490008091F100819342E0ED3AF407C9F7809101
:1034A000A602833009F463C030F4813071F08230B9
:1034B00009F49DC0B4C08A3009F489C08B3009F486
:1034C0006EC0893009F0ABC020C08091A502813A5E
:1034D00009F0A5C08091E800877F8093E800809183
:1034E000A9029091AA02892B21F468E089E992E06F
:1034F00003C060E080E090E070E00E94A220809134
:10350000E8008B778093E8008AC08091A502813221
:1035100009F085C08091A9029091AA02009719F044
:10352000029709F07CC08091E800877F8093E800D3
:103530008091E80082FD05C08091A3028111F8CF3F
:103540006EC02091F3008091F20090E0922B0297E0
:1035500031F48091F100813011F0863021F48091B6
:10356000F100809398028091E8008B7754C080919D
:10357000A502813A09F053C08091A9029091AA0254
:10358000892B09F04CC08091E800877F8093E80088
:103590008091E80080FFFCCF80911E0137C08091B0
:1035A000A5028132E1F58091A9029091AA02892BAE
:1035B000B1F58091E800877F8093E8000E944E205B
:1035C0008091A70280931E010E94412928C080910A
:1035D000A502813221F58091E800877F8093E80081
:1035E0000E944E208091A8028093970218C080917B
:1035F000A502813AA1F48091E800877F8093E800DA
:103600008091E80080FFFCCF809197028093F100C9
:103610008091E8008E778093E8000E944E20809190
:10362000E80083FFF1C18091A5029091A602492F85
:1036300050E04A30510508F0E7C1FA01E059FF4F68
:103640000C94BA36803821F0823809F0DDC108C008
:103650008091A1029091A202992389F082600FC00B
:103660008091A9028F70873008F0CEC18093E90065
:103670008091EB0085FB882780F91092E9009091FA
:10368000E800977F9093E8008093F1001092F1009A
:103690007DC1282F2D7F09F0B7C1882319F0823012
:1036A00061F0B2C18091A702813009F0ADC19330C1
:1036B00009F080E08093A2022EC08091A7028111C0
:1036C0002AC08091A9028F702FEF280F263008F0B2
:1036D0009BC18093E9002091EB0020FF1CC0933038
:1036E00021F48091EB00806214C09091EB00906116
:1036F0009093EB0021E030E0A90102C0440F551F78
:103700008A95E2F74093EA001092EA008091EB007C
:1037100088608093EB001092E9008091E800877F39
:103720008093E8000E944E206FC181116DC11091FD
:10373000A7021F778091E3008078812B8093E300BC
:103740008091E800877F8093E8000E944E2080915E
:10375000E80080FFFCCF8091E30080688093E30065
:10376000111102C082E001C083E08093A3024CC12A
:103770008058823008F048C12091A7023091A802F9
:103780002C3D53E0350779F583E08A838AE289830B
:103790004FB7F894DE01139620E03EE051E2E32FAC
:1037A000F0E050935700E49120FF03C0E295EF70E2
:1037B0003F5FEF708E2F90E0EA3010F0C79601C0A7
:1037C000C0968D939D932F5F243149F74FBF809111
:1037D000E800877F8093E8006AE270E0CE010196FE
:1037E0000E94A220C1C08091A9029091AA02432FF9
:1037F000552743305105B1F068F44130510509F4C3
:1038000012C14230510509F0FFC08BE790E0E1E3BF
:10381000F4E057C04132510589F14232510509F4B3
:103820003CC0F2C0C901992781309105B9F070F010
:1038300082309105D9F0039709F0E6C0EEEBF4E091
:10384000E4918E2F90E0EEEBF4E038C0E0E0F5E09C
:10385000E4918E2F90E0E0E0F5E030C0E2EFF4E09C
:10386000E4918E2F90E0E2EFF4E028C0ECEDF4E07C
:10387000E4918E2F90E0ECEDF4E020C084309105CF
:1038800008F0C2C0880F991FFC01EB5BFE4F01904E
:10389000F081E02D89E090E014C08430910508F0BB
:1038A000B3C0FC01EE0FFF1FE35CFE4F0190F081FF
:1038B000E02DDC01A75CBE4F8C9190E0009709F4ED
:1038C000A3C02091E800277F2093E8002091AB025D
:1038D0003091AC028217930708F49C0140E0211557
:1038E000310589F18091A302882309F43DC0853018
:1038F000D9F18091E80083FD37C08091E80082FD16
:103900002FC08091E80080FFEACF4091F3008091C2
:10391000F20090E0942B2115310559F08830910583
:1039200040F444914093F1003196215031090196C1
:10393000F2CF41E0089709F040E08091E8008E77EF
:103940008093E800CCCF4111CDCF0AC08091A30273
:10395000882351F0853041F08091E80083FD04C058
:103960008091E80082FFF2CF8091E8008B7780930E
:10397000E8004AC0803809F047C08091E800877F9E
:103980008093E8008091A4028093F1008091E80088
:103990008E77C6CE811138C08091A7029091A8027F
:1039A000992702978CF58091E800877F8093E80043
:1039B0001091A7021093A4020E944E20111106C07C
:1039C0008091E30087FD02C081E001C084E0809324
:1039D000A30242E061EC81E00E946D2042E261ECD2
:1039E00084E00E946D2042E261EC82E00E946D2042
:1039F00042E260EC83E00E946D2042E261EC85E0EF
:103A00000E946D208091A3028091E80083FF10C086
:103A10008091E800877F8093E8008091EB008062CE
:103A20008093EB0005C082E190E0ECEAF4E049CF3E
:103A3000AA960FB6F894DEBF0FBECDBFDF91CF912F
:103A40001F9108951F920F920FB60F9211242F937A
:103A50003F934F935F936F937F938F939F93AF9316
:103A6000BF93CF93DF93EF93FF93C091E900CF70A3
:103A70008091EC00D82FD17080FDD0E81092E90041
:103A80008091F000877F8093F00078940E943B1A29
:103A90001092E9008091F00088608093F000CD2BB7
:103AA000CF70C093E900FF91EF91DF91CF91BF916B
:103AB000AF919F918F917F916F915F914F913F91C6
:103AC0002F910F900FBE0F901F901895E8EDF0E02A
:103AD00080818E7F80831092E2001092DA00109233
:103AE000E100A0EEB0E08C9181608C9380818F77B3
:103AF000808319BCA7EDB0E08C918E7F8C93808180
:103B00008F7E8083109296020895CF92DF92EF927B
:103B1000FF920F931F93CF93DF93C8EDD0E088817E
:103B20008F7E8883E7EDF0E080818160808384E090
:103B300082BF81E08093960288818E7F888302EE27
:103B400010E0F80110821092DA0081EEC82ED12C1C
:103B5000F601108288818F778883888180688883C6
:103B600088818F7D888319BC1092A3021092A402D1
:103B70001092A2021092A10290EEE92EF12CF70110
:103B800080818B7F808388818160888342E060E0D0
:103B900080E00E946D20F60180818E7F8083F80195
:103BA000808181608083808188608083F70180814B
:103BB0008E7F8083888180618883DF91CF911F9180
:103BC0000F91FF90EF90DF90CF9008951F920F928A
:103BD0000FB60F9211242F933F934F935F936F93E0
:103BE0007F938F939F93AF93BF93EF93FF938091B6
:103BF000E10082FF49C08091E20082FF45C08091D0
:103C0000E1008B7F8093E100209195022F5F822F4E
:103C100062E30E947836992319F02093950234C00C
:103C20001092950280919402882371F18091A302F1
:103C3000843041F58091E9008F702091EC00922F43
:103C4000917020FD90E8892B95E09093E900909188
:103C5000EB0090FF14C09091EE0097FF10C0909180
:103C6000E80095FF03C01092F100F9CF9091E800B1
:103C700090FF05C09091E8009E779093E8008F70C8
:103C80008093E900109294028091DA0080FF32C0A4
:103C90008091D80080FF2EC08091DA008E7F8093C3
:103CA000DA008091D90080FF1CC080E189BD82E1EB
:103CB00089BD09B400FEFDCF81E08093A3028DE1B0
:103CC00094E00E94450680919602811113C00E94E3
:103CD000661D0E94851D8091E20084608093E20051
:103CE00009C019BC1092A30281E294E00E9445062B
:103CF000109296028091E10080FF1BC08091E2004B
:103D000080FF17C08091E2008E7F8093E200809157
:103D1000E20080618093E2008091D800806280930D
:103D2000D80019BC85E08093A30285E294E00E944C
:103D300045068091E10084FF34C08091E20084FF59
:103D400030C080E189BD82E189BD09B400FEFDCFAC
:103D50008091D8008F7D8093D8008091E1008F7E84
:103D60008093E1008091E2008F7E8093E200809159
:103D7000E20081608093E2008091A402882311F028
:103D800084E007C08091E30087FD02C081E001C0AC
:103D900083E08093A30289E294E00E94450680912B
:103DA000A3028091E10083FF2BC08091E20083FF9A
:103DB00027C08091E100877F8093E10082E08093BB
:103DC000A3021092A4028091E1008E7F8093E10013
:103DD0008091E2008E7F8093E2008091E20080611A
:103DE0008093E20042E060E080E00E946D208091DC
:103DF000F00088608093F0008DE294E00E94450618
:103E0000FF91EF91BF91AF919F918F917F916F91B2
:103E10005F914F913F912F910F900FBE0F901F9088
:103E200018952091E4003091E50095E64091EC0072
:103E3000842F817040FF23C08091E80080FD1DC069
:103E40008091A302882399F0853099F08091EB004E
:103E500085FD11C04091E4005091E500241735071D
:103E600029F3915011F09A01E1CF84E0089582E0A6
:103E7000089583E0089581E0089580E008954091D9
:103E8000E80042FFDDCF0895EF92FF920F931F935A
:103E9000CF93DF937C018B010E94111F811119C008
:103EA000E70101151105A1F08091E80085FD0AC028
:103EB0008091E8008E778093E8000E94111F88238C
:103EC00081F307C089918093F10001501109E9CF76
:103ED00080E0DF91CF911F910F91FF90EF900895B7
:103EE000089508958091980208959FB7F8941092CC
:103EF00094029FBF9091A302943009F057C0909113
:103F0000E9009F703091EC00232F217030FD20E8F4
:103F1000922B25E02093E9002091EB0020FF43C085
:103F20002091EE0027FF3FC020912104222321F0A1
:103F30002091E80025FF37C01092210426E030913F
:103F4000E80035FD15C03091A302343061F53091A1
:103F5000EB0035FD28C0215021F481E0809321043D
:103F600022C0EFE9FFE03197F1F700C00000E7CF92
:103F70008093F1008091E80085FD0AC08091E800FF
:103F800080FFFCCF8091E8008E778093E80006C028
:103F90008FB7F89421E0209394028FBF9F70909385
:103FA000E90080E008959F709093E9008FEF0895F5
:103FB00080931E047093200460931F048091A302D9
:103FC0008430F9F48093E9008FEF9091E8008150FC
:103FD00095FD06C095ED9A95F1F700008111F5CF9A
:103FE0008091E80085FF0DC040E050E063E070E0A4
:103FF0008EE194E00E94441F8091E8008E778093C8
:10400000E8000895BC0184E00C94D81FBC0183E053
:104010000C94D81FCF93DF9321E02093E9002FEF7A
:104020003091E800215035FD06C035ED3A95F1F7A5
:1040300000002111F5CF2091E80025FF14C0EC010C
:1040400040E050E068E070E00E94441F8091E8008A
:104050008E778093E80088E0FE01A9E9B2E0019044
:104060000D928A95E1F7DF91CF910895CF93C82FF4
:104070001F928F9380E29AE09F938F930E94DE06B7
:1040800081E001C0880FCA95EAF70E943D290F9090
:104090000F900F900F90CF910C9441298091A50221
:1040A00087FF11C08091E80082FD05C08091A302C6
:1040B0008111F8CF11C08091E8008B770BC08091FF
:1040C000A302882349F08091E80080FFF8CF809117
:1040D000E8008E778093E8000895982F973068F570
:1040E0009093E900981739F07091EC002091ED0061
:1040F0005091F00003C0242F762F50E021FD02C024
:104100009F5FECCF3091EB003E7F3093EB0030911E
:10411000ED003D7F3093ED003091EB003160309346
:10412000EB007093EC002093ED005093F000209191
:10413000EE0027FDE5CF80E008958F708093E900C1
:1041400081E008952091AB023091AC022617370729
:1041500048F06115710539F42091E8002E7720931D
:10416000E80001C0B901FC0120E06115710579F199
:104170008091A3028823F1F18530F1F18091E8006C
:1041800083FD3CC08091E80082FD2EC08091E80054
:1041900080FFEBCF2091F3008091F20090E0922B12
:1041A0006115710551F08830910538F42191209303
:1041B000F100615071090196F3CF21E0089709F0F1
:1041C00020E08091E8008E778093E800CECF211127
:1041D000CFCF0AC08091A302882361F0853061F0BF
:1041E0008091E80083FD0AC08091E80082FFF2CF51
:1041F00080E0089582E0089583E0089581E00895C5
:1042000087E797E790930108809300089AE088E198
:104210000FB6F894A895809360000FBE909360004D
:10422000FFCF78941F920F920FB60F9211248F93A5
:104230009F93AF93BF9380911A0490911B04A09118
:104240001C04B0911D040196A11DB11D80931A0498
:1042500090931B04A0931C04B0931D04BF91AF91D5
:104260009F918F910F900FBE0F901F9018959C01FA
:104270004FB7F89480911A0490911B04A0911C04EC
:10428000B0911D044FBF821B930B08952FB7F89474
:1042900060911A0470911B0480911C0490911D047C
:1042A0002FBF08952FB7F89480911A0490911B04A2
:1042B000A0911C04B0911D042FBF08951F920F926E
:1042C0000FB60F9211248F939F93AF93BF9380915A
:1042D0001904811113C080911A0490911B04A091BC
:1042E0001C04B0911D044196A11DB11D80931A04B8
:1042F00090931B04A0931C04B0931D04BF91AF9135
:104300009F918F910F900FBE0F901F9018959C0159
:10431000FC0132969FEF80E04191461789F09F3F64
:1043200019F4411101C0982F8F5F8630A9F79F3F84
:1043300039F0F901E90FF11D97FDFA9562830895AF
:10434000089520911704309118042817390771F047
:104350009093180480931704E0911504F0911604CB
:10436000309721F00084F185E02D09940895209183
:104370001304309114042817390771F09093140432
:1043800080931304E0911504F0911604309721F006
:104390000680F781E02D09940895E0911504F091CD
:1043A0001604309721F00190F081E02D099480E00F
:1043B0000895EF92FF920F931F93CF93DF93FC0129
:1043C0002285211136C0EC01E380F480F7E5FF1A65
:1043D00026E12E9DC0012F9D900D1124DC01AD59C9
:1043E000BC4F1496ED91FC91159787599C4F3097CF
:1043F00029F054966D917C915597099586E18E9D93
:1044000080018F9D100D11240D591C4FF8018781DB
:104410000E94772EF80180850E94702E0E947E2EC9
:10442000188219861B861E821D82109262031092CA
:104430006103DF91CF911F910F91FF90EF9008954D
:10444000CF93DF93FC01218921111CC0EC0181E095
:10445000818B90915F038781892B80935F0390917B
:1044600060038085892B809360030E947E2EEA8101
:10447000FB81CE010696309729F06C897D89DF910A
:10448000CF910994DF91CF9108950F931F93CF930C
:10449000DF93C42FD22FFC0182818823C9F040937F
:1044A0005E030E94522190935D0380935C0380E23F
:1044B0008C0F883008F057C0C77081E001C0880FAA
:1044C000CA95EAF7DF91CF911F910F910C94EA29D9
:1044D00080915E03481330C080915C0390915D032E
:1044E0000E943721883C910538F510E21D0FCD1749
:1044F000B9F080E28C0F883040F4C77081E001C0D1
:10450000880FCA95EAF70E94E329183028F581E060
:104510009D2F977001C0880F9A95EAF70E94EA29AB
:10452000802F0E94B62A1830F0F4D77081E001C0C5
:10453000880FDA95EAF70AC080E28C0F883098F489
:10454000C77081E001C0880FCA95EAF7DF91CF916B
:104550001F910F910C94E329802FDF91CF911F9130
:104560000F910C94B62ADF91CF911F910F9108956E
:10457000EF92FF920F931F93CF93DF938B3109F448
:1045800001C108F092C08B3009F4B4C008F07CC0BF
:10459000863009F4B2C020F4853009F4C0C062C18D
:1045A000873009F4D4C0883009F05CC183E090E022
:1045B0000E94C5351F928F9386E896E09F938F9354
:1045C0000E94DE0682E090E00E94C53583FB9927B9
:1045D00090F91F929F9382FB992790F91F929F93C6
:1045E00081FB992790F91F929F93982F91701F92AA
:1045F0009F931F928F938DE396E09F938F930E94DA
:10460000DE060E94DF2D87FB222720F91F922F93C1
:1046100086FB222720F91F922F9385FB222720F962
:104620001F922F9384FB222720F91F922F9383FB45
:10463000222720F91F922F9382FB222720F91F9215
:104640002F9391FB222720F91F922F93292F21705E
:104650001F922F9381FB222720F91F922F93282F3F
:1046600021701F922F939F938F9388E595E09F93DE
:104670008F930E94DE068DB79EB788960FB6F8948A
:104680009EBF0FBE8DBFF4C0803109F4A3C020F4DB
:104690008E3009F48BC0E6C0863109F4B8C0893188
:1046A00009F0E0C081E698E0AFC08A32E1F060F442
:1046B000873209F4D3C028F48E3108F4D3C08D5169
:1046C000CEC0893261F1CEC0833448F48A3308F019
:1046D000C3C0853309F4C2C0883361F0C3C08334DA
:1046E00009F4BCC0BFC08FE09AE00E9445060E945A
:1046F000FB2DBEC083EA96E087C080915B03817F7B
:104700008E7F80935B0386E498E00E9445068BE0F1
:104710009AE00E94450681E080935A03A9C08FEE7B
:1047200099E00E9445068091200190912101892BFA
:1047300009F49EC00E9441299FEF24E38CE0915030
:1047400020408040E1F700C000000E9400218091DD
:104750005B03C82FC095C170C0FB80F980935B03D9
:10476000CC2329F083EE99E00E94450682C086EDB5
:1047700099E00E94450680915B03897F877F809343
:104780005B0376C090915B0391FBCC27C0F981E07D
:10479000C827892FC0FB81F980935B03CC2319F0D4
:1047A00089EC99E027C08BEB99E02EC090915B03D8
:1047B00092FBCC27C0F981E0C827892FC0FB82F982
:1047C00080935B03CC2319F08CEA99E013C08CE949
:1047D00099E01AC090915B0393FBCC27C0F981E06C
:1047E000C827892FC0FB83F980935B03CC2351F04A
:1047F00080E999E00E94450680915B038160809387
:104800005B0337C083E899E00E94450631C00E94EF
:104810004621162F072FF82EE92ED0919702C0912E
:104820001E010E94CD21EF92FF920F931F931F92C2
:10483000DF931F92CF931F928F9386E199E09F930E
:104840008F930E94DE068DB79EB70C960FB6F89434
:104850009EBF0FBE8DBF0CC0895301C080E00E9477
:10486000362006C081E899E00E944506C0E001C0FC
:10487000C1E08C2FDF91CF911F910F91FF90EF90AE
:104880000895BC014091560380915703942F9817C7
:1048900029F1292F30E0F901EE0FFF1FE25BFC4FF9
:1048A0000190F081E02DE617F70799F487E0869FE5
:1048B000F001879FF00D1124EA5EFC4F81E08483B4
:1048C00094130CC02F5F3F4F237033272093560360
:1048D00008952F5F3F4F922F9370D9CF08950F9374
:1048E0001F93CF93DF938091B502882309F451C0C1
:1048F000C091B4021CE08091B502C81708F045C011
:1049000001E00C0F0093B402D0E01C9FF0011D9F4A
:10491000F00D1124EA54FD4F90818181238134816F
:10492000232B31F08F3F31F481E09F3F19F403C016
:1049300081E001C080E080FD26C01C9FD0011D9F4A
:10494000B00D1124AA54BD4F16968D919C911797C6
:10495000892B31F418968D919C911997019651F4F9
:104960002081318142815381648175818681978163
:104970000E944C291C9FF0011D9FF00D1124EA5448
:10498000FD4F14821382C02FB6CF1092B502109241
:10499000B402DF91CF911F910F9108951092B3024D
:1049A0001092B202E6E1F3E08581811102C0148227
:1049B0001682379683E0EE34F807B1F70895109227
:1049C00059031092580310921F018091570380934E
:1049D00056030E94CE240C946F243F924F925F9214
:1049E0006F927F928F929F92AF92BF92CF92DF92FF
:1049F000EF92FF920F931F93CF93DF93C0915603D3
:104A000097E0892E01E010E02CE0322E3EEF932E4D
:104A10004424439480915703C81709F478C0D0E028
:104A2000FE01EE0FFF1FE25BFC4F80819181889EAB
:104A3000D001899EB00D1124AA5EBC4F14962C9112
:104A40001497211161C05090B502E6EBF2E020E02E
:104A500030E0712C5D01251508F054C0E284F38428
:104A6000D501CD90DC906FEF7FEF612C462D50E0AB
:104A7000DA01AA0FBB1FAC0DBD1D0D90BC91A02D7E
:104A8000109731F0EA16FB0609F4BA016394EECFF1
:104A90006F3FBFEF7B0791F1D80102C0AA0FBB1F88
:104AA0006A95E2F77A2AB80102C0660F771F6A9406
:104AB000E2F7AB0141505109672D70E046175707E7
:104AC000D9F4329EF001339EF00D1124EA54FD4FCB
:104AD000889ED001899EB00D1124AA5EBC4F12960B
:104AE0002D913C91139737832683908291829187F1
:104AF000808715964C9206C0148213822F5F3F4F19
:104B00003C96A9CF0E9441242196C37083CF0E9476
:104B10006F24DF91CF911F910F91FF90EF90DF9065
:104B2000CF90BF90AF909F908F907F906F905F904D
:104B30004F903F900C94CE24CF93DF93C7E6D3E001
:104B400060E0CE010E94D9352196C11584E0D807D6
:104B5000B9F7DF91CF910895462F2091B00230919F
:104B6000B102232B91F47E3F39F46E3F71F48091B2
:104B7000AE029091AF020895883038F4773028F46F
:104B8000663018F4672F0C94601680E090E008956A
:104B90006F927F928F929F92AF92BF92CF92DF924D
:104BA000EF92FF920F931F93CF93DF93CDB7DEB7B2
:104BB00064970FB6F894DEBF0FBECDBFA090200162
:104BC000B090210181E090E0909321018093200139
:104BD000612CC12CD12C712CE12CF12C00E010E0C7
:104BE00046018E0C9F1CF801EE0FFF1FE80DF91D0A
:104BF000EC5FFA4F25913491402F672D862D0E944E
:104C00002A160F5F1F4F0630110569F78CE0E80E7A
:104C1000F11C7394E7E07E12E1CFF4E5CF0ED11CD6
:104C2000639488E06812D7CF1A8219821C821B8293
:104C30001E821D8218861F8288EC90E09A878987E1
:104C400007EC12E04AE050E0B801CE0101960E9464
:104C5000FD35065F1F4F0731E3E01E0799F77E0120
:104C6000FBE0EF0EF11C8AE0F70111928A95E9F75B
:104C70004AE050E0B801C7010E94FD35065F1F4FB2
:104C80000736F3E01F07A1F7B0922101A09220019F
:104C900064960FB6F894DEBF0FBECDBFDF91CF9103
:104CA0001F910F91FF90EF90DF90CF90BF90AF904A
:104CB0009F908F907F906F900895883080F49B0133
:104CC000982F8AE0989FB001112469537D4F4AE0E4
:104CD00050E0C9010E94B53580E090E008958FEF63
:104CE0009FEF089580E090E00E94B72180E090E07F
:104CF0000E94A1211092600310928A040C947E2ECF
:104D0000CF92DF92FF920F931F93CF93DF936C01AB
:104D10000091AD0280918E04082BC7E0D0E010E036
:104D2000C8010C2E02C0959587950A94E2F780FD84
:104D300004C02197A8F7F12C09C0FC2EB6018C2FD6
:104D40000E94AC250E94562C019799F38F2DDF917C
:104D5000CF911F910F91FF90DF90CF900895CF9347
:104D6000DF93EC010E948026BE010E94AC250E94C8
:104D7000562CDF91CF910895FC0186819781009791
:104D800019F00E94562C04C0808191810E94AF26A8
:104D9000292F2F70E92FE295EF704E2F50E0FA0186
:104DA0003297EE30F105B8F4E658FF4F0C94BA365E
:104DB000803F99F018F4883E70F40FC0843F59F496
:104DC0000CC0883E50F0813F31F407C0822F869599
:104DD00086958695089580E0089581E008959F92D4
:104DE000AF92BF92CF92DF92EF92FF920F931F93F9
:104DF000CF93DF93CDB7DEB765970FB6F894DEBFDC
:104E00000FBECDBF8C0185E0F801DE015196019007
:104E10000D928A95E1F7F801E28090913C0460914F
:104E20003D0440913F04509140044115510531F03B
:104E30006F3F31F481E09F3F19F403C081E001C06E
:104E400080E0F82FF1709F2E80FD4EC1F801308177
:104E50002181C380D4807CE3A72E74E0B72EF0902C
:104E60003E04F601E41BF50BFF2009F4EFC080912E
:104E70004104E83CF10508F0AAC0482F407F09F042
:104E80005AC062131BC0931319C060914204709101
:104E90004304F801468157816417750779F4FE2CA5
:104EA000E1100CC08F70806180934104C5010E94A5
:104EB000E70680914104F801858353C1CD2831F084
:104EC0002F3F31F481E03F3F19F403C081E001C07E
:104ED00080E080FD03C081E08E2502C080E090E08C
:104EE000F82FF170FF2E80FF1CC080918504409147
:104EF0004404841709F413C190E0FC0153E0EE0F61
:104F0000FF1F5A95E1F7EB5BFB4F5181251306C05C
:104F10005081531303C05281E51203C0019687707C
:104F2000E8CFFE2CEE2009F41CC180914104816081
:104F30008093410458C062130FC093130DC0409179
:104F4000420450914304F8012681378142175307E8
:104F500019F4EE2009F4A7C0C8010E94BC268823DA
:104F600081F1EE2071F120914104822F82958F70A2
:104F700090E00297A4F080913C0490913D049A87C0
:104F800089871B86DD86CC862E878091420490918E
:104F90004304988B8F87CE0109960E94E70688E02C
:104FA000F801ACE3B4E001900D928A95E1F70E941C
:104FB000222F0AC06217C9F0C8010E94BC268111C5
:104FC00027C0C8010E94E706FF24F394CAC0482FF7
:104FD000407F81F78CE394E00E94E70688E0F501CA
:104FE00011928A95E9F7F12CBCC09313E5CF40915B
:104FF000420450914304F801268137814217530738
:10500000D9F6E110D9CF8583C8010E94E70666C0B2
:10501000EE20B9F220914104822F82958F7090E0AA
:1050200002970CF4BCCF80913C0490913D049A838C
:1050300089831B82DD82CC822E83809142049091F1
:10504000430498878F83CE010196A7CFE83CF105F2
:1050500008F044C0FE2CEE2009F4B3CF621330C038
:1050600093132EC02091420430914304F8018681AD
:1050700097812817390721F59091410490FD17C0B9
:10508000892F82958F70282F30E02115310579F016
:1050900095832F30310541F08F5F982F9295907F47
:1050A00085818F70892B8583C8010E94E70688E07F
:1050B000F801ACE3B4E001900D928A95E1F751C09C
:1050C000C8010E94BC2681116ACF80914104816091
:1050D00080934104C8010E94E70643C088E0F501BF
:1050E00011928A95E9F73DC0EE2009F46ACFC80114
:1050F0000E94BC26F82E882309F463CF88E0F801CB
:10510000ACE3B4E001900D928A95E1F780913C0404
:1051100090913D040E94AF260E94222F22C0398B1D
:105120002A8B89899A890E94AF26292F22952F7070
:10513000223028F49F7039F0811105C00BC0243053
:1051400028F49F7049F4805E883020F0C8010E94E6
:10515000E7069F2CF92C05C0F8019581907F99F7FF
:10516000F9CF8F2D65960FB6F894DEBF0FBECDBF79
:10517000DF91CF911F910F91FF90EF90DF90CF9033
:10518000BF90AF909F9008959E3F61F1292F220F0D
:10519000920F990F980F692F66956695669597708F
:1051A00083E0689FB001112440E050E080E0FB0103
:1051B000E40FF51FEE5DFB4F208130E0092E02C0A9
:1051C000369527950A94E2F721703327042E01C003
:1051D000220F0A94EAF7822B4F5F5F4F433051054D
:1051E00031F7089580E008959E3F59F1292F220F4D
:1051F000920F990F980FE92FE695E695E69597702F
:1052000051E001C0550F9A95EAF783E0E89FF0015D
:105210001124EE5DFB4F20E030E070E04081CB01D7
:10522000022E02C0969587950A94E2F781708195C7
:1052300084278523842781932F5F3F4F23303105B7
:1052400069F708958093AD020C94722621E030E056
:1052500001C0220F8A95EAF720958091AD02822342
:105260000C94222921E030E001C0220F8A95EAF750
:105270008091AD02822B0C94222980938E040C9491
:10528000722610925F0386E0E6E3F4E0DF011D92F0
:105290008A95E9F70C947226CF93DF93CDB7DEB7EA
:1052A00060970FB6F894DEBF0FBECDBF29873A874F
:1052B0004B875C876D877E878F87988BCE01099699
:1052C0000E94EF26811151C088E0FE013996DE016F
:1052D000119601900D928A95E1F779856A854C8542
:1052E0005D854115510531F06F3F31F481E07F3F1D
:1052F00019F403C081E001C080E080FD36C0A091B8
:105300004404B0E0CD01019687709927209185046F
:1053100030E08217930781F179836A835D834C8340
:1053200093E0AA0FBB1F9A95E1F7AB5BBB4F98E0E8
:10533000FE01319601900D929A95E1F78093440415
:105340000E94182F12C028E0829FC00111248B5B9D
:105350009B4F0E94EF268823E1F08091850490E026
:105360000196877099278093850480918504909198
:1053700044048913E8CF0DC00E94412910924404CF
:1053800010928504ECE3F4E088E0DF011D928A9539
:10539000E9F760960FB6F894DEBF0FBECDBFDF9180
:1053A000CF910895882321F00E94702E0C947E2EB8
:1053B0000895882339F090916003892B80936003CE
:1053C0000C947E2E0895882321F00E94772E0C9451
:1053D0007E2E0895882339F090915F03892B809366
:1053E0005F030C947E2E0895882371F19CEF980F33
:1053F000913A60F4E4E3F4E09281891301C01282EF
:10540000319694E0EA33F907B9F70DC090E2980FAE
:10541000983058F4982F977081E001C0880F9A95C2
:10542000EAF70E94772E0C947E2E9BE5980F93301E
:1054300020F480E090E00C94B721885A873120F462
:1054400080E090E00C94A1210895CF93882309F483
:105450008BC09CEF980F913AC8F5C82F80915A03E2
:10546000882319F0813051F02BC080915F03823284
:1054700009F05CC08C2F0E94B82225C080915F0388
:105480008232C1F3C43191F018F4CB3029F011C04D
:10549000C93261F0C83369F486E498E00E94450699
:1054A00087E29AE00E94450681E008C010925A0304
:1054B00004C085E29AE00E94450680E0817003C046
:1054C00010925A0333C081114FC030C090E2980F40
:1054D000983090F4877021E030E0A90102C0440FB9
:1054E000551F8A95E2F7CA0190915F03892B80933B
:1054F0005F03CF910C947E2EEBE5E80FE33040F490
:10550000F0E0E35BFE4F808190E0CF910C94B721F7
:10551000885A873148F5E82FF0E0EE0FFF1FE05B77
:10552000FE4F80819181CF910C94A121E6E3F4E0BC
:105530008191C81729F044E0EC33F407C9F70EC095
:10554000E4E3F4E08AE394E02281C21301C0128212
:1055500031968E179F07C1F70E947E2E6C2F84E331
:1055600094E00E948721C5CFCF9108951F93CF93D8
:10557000DF93182F893319F0C0E0D0E002C0C0E5F6
:10558000D0E0812F0E94252A209741F08FE99FE0EB
:105590000197F1F700C000002197F6CF812FDF912E
:1055A000CF911F910C94F4299091AD0192FF0DC001
:1055B000282F2871283019F4877F846006C0282F8F
:1055C0002471243011F48B7F886093FF0DC0282F45
:1055D0002871283119F4877E846106C0282F247130
:1055E000243111F48B7E88612091AE0120FF0DC023
:1055F000382F3871383019F4877F816006C0382F12
:105600003171313011F48E7F886021FF0DC0282F59
:105610002871283119F4877E816106C0282F2171F5
:10562000213111F48E7E886194FD877E0895F8946F
:10563000E82FE295EF70F0E031A1282F2F7081E084
:1056400090E001C0880F2A95EAF7982F9095932350
:1056500091A392A1892B82A3789408959F92AF92EF
:10566000BF92CF92DF92EF92FF920F931F93CF934F
:10567000DF93CDB7DEB727970FB6F894DEBF0FBE26
:10568000CDBFAE014F5F5F4F7A0187E0FA01119203
:105690008A95E9F70CE211E06A01AA24A394B12CDF
:1056A000F80180818F3F09F441C0F894E82FE2951A
:1056B000EF70F0E021A18F70A50102C0440F551FCB
:1056C0008A95E2F7CA01922F982B91A392A1809517
:1056D000892382A3789400C0E3E3F1E0912C31E0C8
:1056E00021912F3F89F0A22FA295AF70B0E0909644
:1056F0008C9190E02F7002C0959587952A95E2F7DE
:1057000080FD02C0832F01C080E0982A330F51E052
:10571000E933F50729F7F80180818F3F11F00E94E6
:10572000172BF0EAFA95F1F7F60190820F5F1F4F01
:10573000FFEFCF1ADF0A21E00333120709F0B0CFE1
:1057400047E050E0B7018FEA91E00E94E33601E0C4
:10575000009709F400E0892B89F087E0F701AFEAB0
:10576000B1E001900D928A95E1F781E08093910478
:105770000E9452219093900480938F048091910411
:105780008823A1F080918F04909190040E9437218A
:10579000059760F0EFEAF1E0A3ECB1E081918D9321
:1057A00041E0E63BF407D1F7109291048091220189
:1057B00090912301019651F110E036E1932E1DC026
:1057C000989EF001999EF00D1124ED59FC4FC2886E
:1057D000D388C114D10419F428ECC22ED12C989E80
:1057E0005001999EB00C1124C5018D599C4F7C012C
:1057F000FC01868181110FC01F5F812F90E02091F5
:1058000022013091230128173907D4F680911F0116
:10581000811111C038C0858596850E943721C81630
:10582000D90650F7C7010E942022C50187599C4F15
:105830000E94D921E1CF809158039091590300979C
:1058400011F10E9437212091B2023091B302281742
:105850003907C8F49091560380915703981759F06F
:105860000E94ED241092B3021092B20210925903DA
:105870001092580308C00E946F241092590310928E
:1058800058030E94CE24802F27960FB6F894DEBFCF
:105890000FBECDBFDF91CF911F910F91FF90EF9081
:1058A000DF90CF90BF90AF909F900895CF93DF93FC
:1058B0008238910569F1B0F48133910509F46FC024
:1058C00048F48932910509F465C08A32910509F4DA
:1058D0006BC08AC08533910509F457C0893391059F
:1058E000B9F082C0833E910571F138F4803E910594
:1058F000B1F0823E910511F177C0863E9105B9F174
:10590000873E9105C9F1843E910509F06DC024C020
:105910002091AD0120FD53C021FD51C065C0809193
:10592000AD0180FD46C08091AE0180FF48C08091EE
:10593000AD0184FD3FC183EE90E03EC18091AD0199
:1059400082FF3AC0F4CF8091AD0182FD35C08091D5
:10595000AE0180FD34C0EBCF8091AE0181FF35C038
:105960008091AD0184FD26C187EE90E025C1809134
:10597000AD0183FF27C0F4CF8091AD0183FD22C02C
:105980008091AE0181FD21C0EBCF8091AD0185FDFD
:105990001FC021C08091AD0185FD1DC019C080913F
:1059A000AD0186FD1BC01DC08091AD0186FD19C0F3
:1059B00015C089E390E000C182EE90E0FDC080EE6A
:1059C00090E0FAC086EE90E0F7C084EE90E0F4C07C
:1059D00089E290E0F1C085E390E0EEC08AE290E0D9
:1059E000EBC081E390E0E8C0811532E5930708F051
:1059F00069C0811541E5940728F0982F8827816FA9
:105A0000906ADAC0883E910568F5803E910508F0FD
:105A1000D3C0883A9105B8F4853A910548F0855A83
:105A2000E82FF0E0E35BFE4F808190E09064C4C01B
:105A30008130910509F4BBC008F4BCC084309105E5
:105A400008F4B8C0B9C08F3B910508F0B3C0885ABC
:105A5000E82FF0E0EE0FFF1FE05BFE4F80819181A9
:105A60009464AAC0811520E59207F0F09C0174E0CF
:105A7000369527957A95E1F7922F9370482F4370CA
:105A800021E030E002C0220F331F4A95E2F73C6864
:105A9000392B8F70982F9695969540E2949FC00170
:105AA0001124822B932B88C0811530E4930718F0C2
:105AB0009F70906A81C09C013A9521153F4108F47E
:105AC0007BC078C0EC01C11586E5D807E8F5C115A3
:105AD00025E5D20748F08C2F0E94D42A8F7190E0E0
