:100000000C94E1030C94FE030C94FE030C94FE0389
:100010000C94FE030C94FE030C94FE030C94FE035C
:100020000C94FE030C94FE030C94C42A0C94882AAE
:100030000C94C22B0C94FE030C94FE030C94FE0350
:100040000C94FE030C94FE030C94FE030C94FE032C
:100050000C94FE030C949C2B0C94FE030C94FE0356
:100060000C94FE030C94FE030C94FE030C94FE030C
:100070000C94FE030C94FE030C94FE030C94FE03FC
:100080000C94FE030C94FE030C94FE030C94FE03EC
:100090000C94FE030C94FE030C94FE030C94FE03DC
:1000A0000C94FE030C94FE030C94FE0305010980DE
:1000B000A101850319012AB700150126B700950192
:1000C00075108100C0050C0901A101850419012AE0
:1000D000A002150126A002950175108100C00660DE
:1000E000FF0961A1010962150026FF00952075082E
:1000F00081020963150026FF00952075089102C052
:1001000005010906A101050719E029E715002501E8
:10011000950875018102950175088101050719008F
:1001200029FF150026FF00950675088100050819AE
:1001300001290515002501950575019102950175A7
:10014000039101C01E0F0500047F3F1F6432146439
:100150003214783C1E1E140A05FD377A585A0000E6
:1001600004E6D6B4460200210116000000742FE513
:10017000A3E004BC016F5D003D8889C65436C317F7
:100180004FE4F94CE1BA98E76D7271317524254856
:10019000258EBD05A2D7126492AC2C47D85CDB0F2C
:1001A00086AEBCC7F549CE4DEAA0193A8ADD9AC1A0
:1001B000DFF9EB0E5D4020197F6BD2219D19DEBD6A
:1001C000361399857C05ACD677B9805CE5426B8B9C
:1001D000A66C95BE93EF4C8722D5D4C9049FE4D872
:1001E000CB93B7908A27025A82A52481311B5A2AC1
:1001F0003029322FB77E7EE00543E35317060B6AA2
:100200001CAD1AB0E7FA8FFA91F483B7608F8DD1E5
:1002100068B327115306C9D8A8906A329851BB62B7
:100220005B069070B628B077484F9178F45D746D96
:10023000B7AA0B5E1A8CE2F6E74B966D766B565AB0
:100240000F588F56B59C64A72ED9BB2FAAD704711F
:100250001179CE08D6FE1305E99BECFFE12F023C95
:10026000642B3E05CDE7D69C88CCA4DF7F53A12D1F
:10027000E4EFE4CEA9F4EA81FE6AB53C0A13016317
:10028000552C49C02B104C3BDC7F61F240E4EEFA68
:1002900014A7978BE7187151F0630F4BF406780A97
:1002A000BFFC04A043E8A05A5A0BE0A88B126E9C36
:1002B00097A15F62920AD3CE4907A7C341B66BE903
:1002C00094836BC02FC9FEF1E6788CAA6C99271035
:1002D000633735C707B4AC56DCE7FBFA3D7AC0009C
:1002E00073D27D0362E00000001A7274612C1AFB65
:1002F0003C00018B03BD090000DEE74B10B1C46771
:10030000FB020000000004595A0001010101010133
:1003100001010102020202020202020203030303BC
:10032000030303030404040404040405050505058C
:10033000060606060607070707070808080809094A
:1003400009090A0A0A0B0B0B0C0C0C0D0D0D0E0EF5
:100350000E0F0F0F10101111111212131314141588
:100360001516161717181819191A1A1B1B1C1D1DFC
:100370001E1E1F2020212222232424252626272852
:1003800029292A2B2C2D2D2E2F3031323233343582
:10039000363738393A3B3C3D3E3F40414243444585
:1003A000464748494A4C4D4E4F5051535455565864
:1003B000595A5B5D5E5F616264656668696B6C6D0E
:1003C0006F7072737577787A7B7D7E808283858784
:1003D000888A8C8E8F91939596989A9C9EA0A2A3C2
:1003E000A5A7A9ABADAFB1B3B5B7BABCBEC0C2C4C7
:1003F000C6C9CBCDCFD1D4D6D8DBDDDFE2E4E7E987
:10040000EBEEF0F3F5F8FAFDFFFFAA7F554022234B
:10041000252628292A2C2D2F3032333536383A3BE1
:100420003D3E4042434547494A4C4E505153555733
:10043000595A5C5E6062646668696B6D6F71737552
:1004400077797B7D7F81838587898A8C8E90929452
:1004500096989A9C9E9FA1A3A5A7A8AAACAEAFB15F
:10046000B3B4B6B8B9BBBCBEBFC1C2C3C5C6C7C9A9
:10047000CACBCCCDCED0D1D2D2D3D4D5D6D7D7D863
:10048000D9D9DADADBDBDBDCDCDCDCDCDDDDDDDDB5
:10049000DCDCDCDCDCDBDBDBDADAD9D9D8D7D7D6BD
:1004A000D5D4D3D2D2D1D0CECDCCCBCAC9C7C6C574
:1004B000C3C2C1BFBEBCBBB9B8B6B4B3B1AFAEACBA
:1004C000AAA8A7A5A3A19F9E9C9A98969492908E65
:1004D0008C8A89878583817F7D7B79777573716F3E
:1004E0006D6B6968666462605E5C5A59575553511A
:1004F000504E4C4A4947454342403E3D3B3A3836D0
:10050000353332302F2D2C2A2928262523222B0063
:1005100014001A00080015001700E000040016007F
:10052000070009000A00E1001D001B000600190079
:1005300005001C0018000C00120013002A000B001C
:100540000D000E000F0033003400110010003600C3
:10055000370038002832E20021522C002252E700F6
:10056000000001001E021F022002210222020100DF
:100570002D022E022F023002310201002900E30079
:10058000E200390034022302240225022602270257
:100590004C005000510052004F00350035024A0017
:1005A0004D004B004E0046002C3201000100280097
:1005B00023520100000001001E001F002000210046
:1005C000220001002D002E002F003000310001001C
:1005D0002900E700E600390034002300240025004C
:1005E000260027004C003A003B003C003D003E0046
:1005F0003F0040004100420043004400450001002C
:1006000023522A0001000100000027782578237872
:100610002178000020782878267824782278000035
:1006200000000000000000000000000000000000CA
:1006300000000000000000000000000000000000BA
:10064000000000000000007C00000000000000002E
:10065000000001000100000001000100000009028B
:100660005B00030100A0FA0904000001030101007E
:10067000092111010001224400070581030800013E
:1006800009040100020300000009211101000122F8
:100690002200070582032000010705030320000153
:1006A00009040200010300000009211101000122D8
:1006B000320007058403200001120100020000003F
:1006C000080778CBDC0100010203011C03760069F6
:1006D0000061006C003A00660036003400630032AE
:1006E00000620033006300000014037200650076AE
:1006F00000690075006E0067003400310000000CD6
:1007000003670074006900700073000000040309AF
:1007100004000000000000000000000000000000D5
:1007200000000000000000000000000000000000C9
:1007300000000000007E0F00D4FFFFFFC700000094
:100740007800000000000000002A2B2800000000B4
:100750000000000000000000000000002900000070
:10076000002C1E3420212224342627252E362D3716
:1007700038271E1F202122232425263333362E37E7
:10078000381F0405060708090A0B0C0D0E0F10117F
:1007900012131415161718191A1B1C1D2F3130238C
:1007A0002D350405060708090A0B0C0D0E0F101154
:1007B00012131415161718191A1B1C1D2F3130355A
:1007C0004C0011241FBECFEFDAE0DEBFCDBF11E039
:1007D000A0E0B1E0E6EAFBE602C005900D92A83A7F
:1007E000B107D9F725E0A8EAB1E001C01D92AD310B
:1007F000B207E1F70E94EB2B0C94D1350C9400006A
:10080000482F20911C059091D30459E0291302C070
:1008100080E0089530E0529FF001539FF00D1124C5
:10082000EC52FB4F8181681306C08081481303C0DE
:1008300085818111EECF2F5F3F4F2770E7CFE8ED25
:10084000F0E080818E7F80831092E2001092DA00C7
:100850001092E100A0EEB0E08C9181608C938081D9
:100860008F77808319BCA7EDB0E08C918E7F8C933D
:1008700080818F7E80831092BC0408952091E400D3
:100880003091E50085E69091EC0090FF06C09091D4
:10089000E80090FF06C080E008959091E80092FD86
:1008A000FACF9091C904992391F0953091F09091ED
:1008B000EB0095FD10C04091E4005091E500241735
:1008C000350709F381509A01F1F684E0089582E03A
:1008D000089583E0089581E008958091CB0487FF17
:1008E00013C08091E80082FF06C08091E8008B77FA
:1008F0008093E80004C08091C9048111F2CF08956B
:100900008091C9048823D9F38091E80080FFF8CF53
:100910008091E8008E77ECCF982F9093E900242FF8
:10092000762F50E0891731F07091EC002091ED00A6
:100930005091F00021FD07C09F5F973071F78093C1
:10094000E90081E008953091EB003E7F3093EB00A9
:100950003091ED003D7F3093ED003091EB00316040
:100960003093EB007093EC002093ED005093F00077
:100970002091EE0027FDE0CF80E00895B0E0A0E0F8
:10098000E4ECF4E00C944D35C8EDD0E088818F7E26
:100990008883E7EDF0E080818160808384E082BF1E
:1009A00081E08093BC0488818E7F888302EE10E012
:1009B000F80110821092DA0081EEC82ED12CF601D7
:1009C000108288818F778883888180688883888176
:1009D0008F7D888319BC1092C9041092CA041092AA
:1009E000C8041092C70490EEE92EF12CF701808123
:1009F0008B7F808388818160888342E060E080E033
:100A00000E948C04F60180818E7F8083F8018081B2
:100A100081608083808188608083F70180818E7F00
:100A20008083888180618883CDB7DEB7E8E00C944D
:100A30006935FC018091D1049091D2048617970703
:100A4000A0F06115710529F49091E8009E779093CC
:100A5000E80090E06115710551F4911108C0809192
:100A6000E80082FF35C080E00895BC01F2CF80919C
:100A7000C9048823C9F18530C9F18091E80083FD5C
:100A800031C08091E80082FDEACF8091E80080FFCC
:100A9000E1CF2091F3008091F200322F282F6115D1
:100AA000710519F02830310558F091E028303105F2
:100AB00009F090E02091E8002E772093E800CACF5B
:100AC00081918093F100615071092F5F3F4FE7CF13
:100AD0008091C904882341F0853041F08091E8007D
:100AE00083FFBDCF81E0089582E0089583E00895FB
:100AF0000895089508958091BE04089587E797E7C3
:100B0000909301088093000888E19AE00FB6F8946A
:100B1000A895809360000FBE90936000FFCF9C016A
:100B20004FB7F8948091B8049091B904A091BA0499
:100B3000B091BB044FBF821B930B08952FB7F8945D
:100B40006091B8047091B9048091BA049091BB048B
:100B50002FBF08952FB7F8948091B8049091B904ED
:100B6000A091BA04B091BB042FBF0895EAEAF1E066
:100B70009281891301C01282319691E0E03BF9071E
:100B8000B9F70895ACEAB1E0EFEF90E02D9182174C
:100B900051F0EF3F19F4211101C0E92F9F5F96300A
:100BA000A9F7EF3F09F408950E2E000CFF0BE65550
:100BB000FE4F82830895A3E0B0E0E1EEF5E00C94EF
:100BC00053352091B5043091B60428173907A1F0A8
:100BD0009093B6048093B504E091B304F091B4040B
:100BE000309751F024E029839B838A830084F18528
:100BF000E02DCE01019609952396E2E00C946F3525
:100C0000A3E0B0E0E6E0F6E00C9453352091B104A7
:100C10003091B20428173907A1F09093B204809361
:100C2000B104E091B304F091B404309751F023E0A3
:100C300029839B838A830084F185E02DCE01019670
:100C400009952396E2E00C946F35E091B304F0919E
:100C5000B404309729F00190F081E02D09950895B2
:100C600080E008954115510511F0FA0109950895A4
:100C7000CF93DF93EC0140919F045091A0046091C9
:100C8000A1047091A2042FB7F8948091B8049091B8
:100C9000B904A091BA04B091BB042FBF841B950B7B
:100CA000A60BB70B843F9140A105B10518F58091C3
:100CB0009F049091A004A091A104B091A2048093FC
:100CC0009B0490939C04A0939D04B0939E0484EF96
:100CD00091E0A0E0B0E08093970490939804A093F3
:100CE0009904B0939A04D093A704C093A604DF910B
:100CF000CF9108950E949E0560939B0470939C047D
:100D000080939D0490939E0482E390E0A0E0B0E085
:100D1000E2CFFC018481862351F492819923B9F0BA
:100D20006923808583FF05C081E061110FC080E0E9
:100D30000895892F8F7092959F70982B862F8F70B2
:100D400062956F70682B81E09613F1CF089581E072
:100D5000FDCFBC0140918F0480919004942F8913A2
:100D600001C00895292F30E0F901EE0FFF1FE95768
:100D7000FB4F0190F081E02DE617F70799F487E02B
:100D8000869FF001879FF00D1124EA51FC4F81E00E
:100D900084839413E6CF2F5F3F4F23703327209334
:100DA0008F0408952F5F3F4F922F9370D8CF1092EA
:100DB000E4031092E303E6EEF3E08581811102C0C3
:100DC00014821682379684E0EE31F807B1F7089561
:100DD000539A0895E8E8F2E090E080E069EC79E267
:100DE00040EF59E220E739E27783668351874087F5
:100DF000338722879787868701967096883091057A
:100E000099F7089581152CE7920741F420919504F4
:100E100030919604232B11F490E080E00895FA01BC
:100E2000811101C0FB010995089580916C0280FD3C
:100E30000AC0E4E1F2E0118210821282339682E06D
:100E4000E533F807C1F76BE070E084E192E00E94BF
:100E5000B10D089590916C0290FF0CC0E4E1F2E0B6
:100E6000818360834283339692E0E533F907C1F7CB
:100E70000E941507089580916C02982F9C7F29F499
:100E80008370846080936C0208958C3AE8F38370D9
:100E9000886AF8CFB0E0A0E0E0E5F7E00C944B35CD
:100EA000C82ED62EE42FF0E0E75FFC4F61110FC093
:100EB000E4919E2F8E2FD90111968C931197EC936C
:100EC00012969C93CDB7DEB7EAE00C946735E62E18
:100ED000F12CE491FE2F0E2F10E046E0849FC0011C
:100EE0001124CFEFD0E0BE010E94FF348C2D90E0A2
:100EF000880F991FA5E5A69FA001A79F500D11245B
:100F0000841B950BB82EBB0CB80ECE018E199F0911
:100F1000809FA001819F500D909F500D1124952F0F
:100F2000DB9CD0011124AB2FBB276E01CA1ADB0A50
:100F3000C09ED001C19EB00DD09EB00D11248B2F4C
:100F40006E01CB18D1085601AE9C6001AF9CD00C4D
:100F5000BE9CD00C1124CD2CDD24CC19DD09C09F02
:100F60007001C19FF00CD09FF00C1124623071050C
:100F7000B1F058F46115710579F06130710509F42B
:100F80009ACF8E2FE52F9B2F96CF6430710571F08D
:100F900048F066307105A9F78E2FEF2D8CCF852F85
:100FA0009F2D89CFEB2F852F9F2F85CF8F2DE52F5D
:100FB000FBCFA3E0B0E0EFEDF7E00C945335909158
:100FC0006C0290FF0AC09E012F5F3F4F0E944A07AC
:100FD0004B8169818A810E942A072396E2E00C9462
:100FE0006F35CF93DF93EC01ECE6F2E04381628151
:100FF0008C810E94D9078C818F5F8C83DF91CF9188
:101000000895CF93DF93EC01EC81F0E0E25FFB4FBA
:101010004491ECE6F2E0628181810E94D9078C81E3
:101020008F5F8C83DF91CF910895EF92FF920F93A2
:101030001F93CF93DF938C01C4E1D2E0F12CE12C1C
:10104000F801948160916E0280916D02F5E0EF16D7
:10105000F104ECF49923E9F09E0140916F020E94A3
:101060004A072FEFE21AF20A23968BE0E816F10402
:1010700039F70E941507F801848190E0019681708C
:1010800099278483CDB7DEB7E6E00C946B359923BE
:1010900019F39E0140E0E3CFA3E0B0E0E2E5F8E021
:1010A0000C9451358C018091130281110AC09E016C
:1010B0002F5F3F4F4FEF6FEF0E944A078A81809367
:1010C0001302F8018481813069F038F040911302F5
:1010D000823009F040E080E003C08091130240E0DC
:1010E00060E004C06091130240E080E00E942A07A3
:1010F000F801848190E0019663E070E00E9413356E
:1011000084832396E4E00C946D35B0E0A0E0EBE836
:10111000F8E00C944935EC014C81042F10E0980163
:10112000D8010E94D6349B01AC010E94A1344B012E
:101130005C01E0E2F0E0E01BF10BA5E5B0E0AC0102
:101140009B010E94A1346B017C019F01DF010E9481
:1011500034359B01AC010E94AC349B01AC01280DDD
:10116000391D4A1D5B1DC701B6010E94B434022F10
:1011700030E00A32D8F5C901880F991F880F991FEE
:10118000281B390B37FF02C02F5F3F4F359527953E
:101190001FEF120F84E1C82E82E0D82EF12C85E5D6
:1011A000E82EE01A8E2DF1FC802F9601412F6091E0
:1011B0006E020E944A07F39483E0C80ED11C8BE0B4
:1011C000F812F0CF0E9415079C8181E0992319F055
:1011D000903219F48FEF80931C0180911C01890FCC
:1011E0008C83CDB7DEB7ECE00C94653585E590E0F7
:1011F000821B930B9C01220F331F220F331F821B74
:10120000930B97FD0196959587951FEF180FC2CF09
:101210000F931F93CF93DF93C4E1D2E0FE011182BD
:1012200010821282339682E0E533F807C1F710E0AE
:1012300000E080911202082E000C990B0817190784
:101240008CF180911B01082E000C990B80179107DF
:101250004CF19E0140916F0260916E0280916D028F
:101260000E944A070F5F1F4F23960B30110509F7A5
:101270000E94150780911A0190911202980F909385
:10128000120220911B01280F20931B01121614F447
:101290009A301CF0819580931A01DF91CF911F91B4
:1012A0000F910895198218821A82DCCFB0E0A0E075
:1012B000ECE5F9E00C944C35FC018281DD24D394FB
:1012C00080FF02C0DD24DA9404E112E0D0E0C0E047
:1012D0002BE0B22EF80111821082128294E0E92EE6
:1012E000F12CC12C809111028C0D8C30C4F16B2D2E
:1012F0000E94F134892F082E000C990BC817D907CA
:1013000091F480916F028E9DA0018F9D500D11244C
:101310005595479555954795980160916E02809136
:101320006D020E944A07CD0CF1E0EF1AF108D1F6E8
:1013300021960D5F1F4FCB30D10561F60E94150736
:101340008091110291E0D91210C081110CC08AE085
:1013500080931102CDB7DEB7E9E00C94683587FFC2
:10136000CACF855FC8CF8150F3CF90E00196BE0110
:101370000E941335EDCFEF92FF921F93CF93DF932F
:10138000EC0184E1E82E82E0F82E10E08C819701D8
:1013900040916F0260916E02810F0E944A07195EB0
:1013A00083E0E80EF11C1D3F89F70E9415079A8122
:1013B0008C8190FF08C08F5F8C83DF91CF911F914C
:1013C000FF90EF9008958150F7CF80E00895F89452
:1013D000E82FE295EF70F0E031A1282F2F7081E027
:1013E00090E001C0880F2A95EAF7982F90959323F3
:1013F00091A392A1892B82A3789408959091ED01F5
:1014000092FF10C041E0282F2471243009F040E001
:1014100031E0282F2871283009F030E0431711F00F
:101420002CE0822793FF10C041E0282F2471243143
:1014300009F040E031E0282F2871283109F030E030
:10144000431711F02CE082273091EE0130FF10C0DD
:1014500051E0282F2171213009F050E041E0282F80
:101460002871283009F040E0541711F029E0822754
:1014700031FF10C041E0282F2171213109F040E0F7
:1014800031E0282F2871283109F030E0431711F09E
:1014900029E0822794FD877E089582389105B9F16D
:1014A000B0F48133910509F47DC048F48932910587
:1014B00009F46DC08A32910509F479C00895853325
:1014C000910509F45FC08933910509F10895833EC0
:1014D0009105D9F138F4803E910529F1823E9105BC
:1014E00079F10895863E9105D9F1873E910509F479
:1014F0003EC0843E910541F52091EE0121FF24C0BC
:101500008091ED0184FD19C087EE90E0089520914F
:10151000ED01237009F056C02091EE0123FF14C0A5
:1015200089E290E008952091ED0120FD38C03091CE
:10153000EE0130FF09C024FF3FC090E080E0089535
:101540002091ED0122FDF7CF08952091ED0122FDBC
:1015500036C03091EE0130FD35C024FDEECFF4CF22
:101560002091ED0123FFF0CF24FDE7CFCDCF2091D7
:10157000ED0123FD2AC03091EE0131FFEECF84EE64
:1015800090E008952091ED0125FDCACF08952091A6
:10159000ED0125FD1DC02091EE0123FFD5CF89E38C
:1015A00090E008952091ED0126FD15C00895209149
:1015B000ED0126FD13C0089583EE90E0089582EEBC
:1015C00090E0089580EE90E0089586EE90E0089512
:1015D00085E390E008958AE290E0089581E390E049
:1015E000B3CF1F93CF93DF930E944D0AEC01C11537
:1015F00080E5D807E8F5C11580E4D80708F09BC05E
:10160000C03ED10518F5CD3CD10508F081C0C83ADF
:10161000D10570F4C53AD10508F072C0C130D105CA
:1016200011F118F0C430D105F0F4D0E0C0E01BC0D7
:10163000C33CD105D0F7C85AD0E0CC0FDD1FC65D42
:10164000DE4F0990D881C02DD4640DC0C11580E251
:10165000D80708F0CBC0C11581E0D80708F05AC000
:10166000C83ED10510F7CE01DF91CF911F910895AB
:10167000C03682E5D80718F5C03482E5D80708F0EF
:1016800069C0C03282E5D80708F05DC0C11582E5A7
:10169000D80708F493C02C2F2695269580E2289F22
:1016A000900111248C2F8370C1E0D0E002C0CC0FD8
:1016B000DD1F8A95E2F7C22BD32BDD68D4CFC03A69
:1016C00082E5D80760F4C03882E5D80708F457C02F
:1016D000CF71D0E0DC2FCC27C46FD06AC4CFC03C20
:1016E00082E5D80708F45EC0C03E82E5D80708F05E
:1016F0009CCFDC2FCC27CC27DF71C06FD06AB3CF53
:10170000C55AD0E0C95DDE4FC881D0E0D064ABCF10
:10171000D065A9CF8D2F0E94FE09182FCE019927E1
:101720000E944D0AC12FD0E0DC2FCC27CC27DF71DF
:10173000C82BD92B98CFCE0199270E944D0ACC27D0
:10174000DF70D06AF5CFCF71D0E0DC2FCC27C16F2E
:10175000D06A89CF2C2F26952695277080E2289F66
:10176000900111248C2F8370C1E0D0E002C0CC0F17
:10177000DD1F8A95E2F7DC68C22BD32B74CF2C2FA8
:1017800026952695277080E2289F900111248C2FA2
:101790008370C1E0D0E002C0CC0FDD1F8A95E2F774
:1017A000DA68EACF8C2F8F710E94FE09C82FD0E033
:1017B000DC2FCC27CC27DF71D06255CF8C2F8F71D7
:1017C0000E94FE0955E0D695C7955A95E1F7CF706E
:1017D000D0E0DC2FCC27282F30E084FF05C044E088
:1017E000220F331F4A95E1F7D069C6CF8D2F8F7135
:1017F0000E94FE09182FCE0199270E944D0AC12F81
:10180000D0E0DC2FCC27CC27DF71906291CF809184
:10181000DE01882331F01092DE011092DD0110927A
:10182000DC0108959091DE01292F282361F0809535
:1018300089238093DE01882339F00E94AA059093C2
:10184000DD018093DC01089590E080E0F8CF982FCF
:1018500090958091AD0489238093AD040895982FCD
:1018600090958091AE0489238093AE0408951092E0
:10187000D3011092D2011092D10108959091D0011C
:10188000292F282321F0809589238093D001089562
:1018900080911C059091D304981301C008958F5F27
:1018A0008770FACF292F973078F5863068F590E069
:1018B00036E0239F800D911D1124682F677023E06F
:1018C000969587952A95E1F7FC01EE0FFF1FE80F2B
:1018D000F91FEB54FE4F50E040E080E0219130E0F2
:1018E000062E02C0369527950A94E2F72170332719
:1018F000042E01C0220F0A94EAF7822B4F5F5F4F3C
:101900004330510559F7089580E00895292F973005
:1019100098F5863088F590E036E0239F800D911D84
:101920001124282F277041E001C0440F2A95EAF7BF
:1019300023E0969587952A95E1F7FC01EE0FFF1FAE
:10194000E80FF91FEB54FE4F30E020E070E05191BA
:10195000DF011197CB01022E02C0969587950A945C
:10196000E2F7817081958527842385278C932F5FEB
:101970003F4F2330310559F708958093EC010895C6
:101980009091EC0121E030E0F90101C0EE0F8A9561
:10199000EAF7D90102C0AA0FBB1F6A95E2F7EA2B4A
:1019A00001C0220F4A95EAF7892F8E23E81305C05C
:1019B000292B822F0E94BD0C089520952923F9CF51
:1019C00021E030E001C0220F8A95EAF7209580914E
:1019D000EC0182230E94BD0C08959091D301809563
:1019E00089238093D301282F277069F4891759F030
:1019F0009091EE0192FF07C08695869586950E948C
:101A0000E00C0E94370C089521E030E001C0220F65
:101A10008A95EAF78091EC01822B0E94BD0C089513
:101A20009091EE0192FF10C098E0899F90011124DF
:101A3000622B6093D3010E94040D0E94AA0590932B
:101A4000D2018093D10108950E94040D08958093DE
:101A5000DF0108959C013A9521153F4150F5FC01A5
:101A6000EE27F170BC0166277270AC0144275470F8
:101A70009C012227387094FF0EC080E0EF2B09F004
:101A800080E1672B09F08062452B09F08064232BED
:101A900089F08068089581E0EF2B09F480E0672BDE
:101AA00009F08260452B09F08460232B19F08860CF
:101AB000089580E008950F931F93CF93DF938B01D8
:101AC000EA019091C904943061F58093E9008FEFA9
:101AD0009091E800815095FD06C095ED9A95F1F73B
:101AE00000008111F5CF8091E80085FF1AC00E94A7
:101AF0003E04811111C08091E80085FD06C08091EF
:101B0000E8008E778093E800F2CFF80181918F0191
:101B10008093F100219779F78091E8008E77809388
:101B2000E800DF91CF911F910F91089543E050E0BD
:101B3000BC0184E00E945B0D0895CF93DF93EC011C
:101B400048E050E0BC0181E00E945B0D88E0FE01AE
:101B5000AFEBB4E001900D928A95E1F7DF91CF9160
:101B600008952BB1277F3BB138604FB7F894FC0143
:101B7000CB01880F991F680F791F6E0F7F1FE61723
:101B8000F70741F44FBF8FE594E00197F1F700C0EC
:101B900000000895819198E03BB9000000C087FFE4
:101BA0002BB9880F000000C000C000C02BB900C0D6
:101BB0009A9591F7E4CFCF93C82F6FEF811168ED1D
:101BC00084E290E00E9446346FEFC1116BE385E23E
:101BD00090E00E9446346FEFC11161E086E290E030
:101BE0000E944634CF910895CF93DF93C8E6D2E0A8
:101BF00060E0CE010E9446342196C11584E0D807EA
:101C0000B9F7DF91CF9108951F93CF93DF93962F6C
:101C10008430E8F46730D8F44630C8F4632F122FCC
:101C2000C42FD0E0CC0FDD1F2CE0929FC00DD11D42
:101C3000112494E5899FC00DD11D1124CE018896F1
:101C40000E944634612FCE0189960E944634DF916E
:101C5000CF911F91089584E290E00E942234883D44
:101C600089F485E290E00E9422348B3359F486E2B5
:101C700090E00E94223491E0813009F090E0892FB9
:101C80008170089580E0FCCF0F931F93CF93DF9373
:101C9000843030F5673020F5463010F5C42FD0E0A1
:101CA000CC0FDD1F2CE0629FC00DD11D112434E547
:101CB000839FC00DD11D1124CE0188960E9422342D
:101CC000082F10E0102F0027CE0189960E942234A1
:101CD0009801282BC901DF91CF911F910F91089591
:101CE00090E080E0F8CF2091070230910802232B8A
:101CF000A1F4703F39F4603F81F4809174029091B7
:101D000075020895773048F4663038F4843028F44A
:101D1000462F672F0E94440E089590E080E00895BA
:101D2000CF92DF92FF920F931F93CF93DF936C01BB
:101D30000091EC018091DF01082BC3E0D0E010E0BE
:101D4000FC2EC8010C2E02C0959587950A94E2F7E7
:101D500080FD0CC02197A0F7F12C8F2DDF91CF9142
:101D60001F910F91FF90DF90CF900895B6018C2FB7
:101D70000E94730E0E94F10A019761F3EECFCF9398
:101D8000DF93EC010E94900EBE010E94730E0E9430
:101D9000F10ADF91CF910895FC0124812223F1F013
:101DA00087819085009789F00E94F10A92959F7033
:101DB0009630B1F078F49250923080F4803F19F070
:101DC00058F4883E58F481E00895808191810E9402
:101DD000BF0EECCF9A50F0CF843FA9F380E0089576
:101DE000883E88F3813FD1F7EECFA6E0B0E0EBEF7D
:101DF000FEE00C945235FC01878190850097E9F450
:101E0000CF0126E0DE01119601900D922A95E1F7AF
:101E1000FC01258189819A81222399F0662389F02A
:101E20000E94900E182F682F89819A810E94860C3B
:101E300069817A81812F0E94730E2696E3E00C94CB
:101E40006E350E94520C182FF3CFAEE1B0E0EBE2FA
:101E5000FFE00C944935C0909504D090960481E041
:101E600090E09093960480939504B12CA12C812C42
:101E70007501912C1AC0F801EE0DFF1DEE0FFF1F2A
:101E8000E25FFA4F25913491402F692D882D0E94F1
:101E9000040E0F5F1F4F0630110569F786E0E80E4C
:101EA000F11C9394E7E09E1619F010E000E0E3CFF8
:101EB0008394FAE2AF0EB11C84E08812D9CF1A8263
:101EC00019821C821B821E821D8218861F8288EC4A
:101ED00090E09A87898708E711E04AE050E0B8016E
:101EE000CE0101960E946A34065F1F4F083CE1E074
:101EF0001E0799F77E01FBE0EF0EF11C8AE0F70167
:101F000011928A95E9F74AE050E0B801C7010E94B2
:101F10006A34065F1F4F0831F2E01F07A1F77E0108
:101F200085E1E80EF11C8AE0F70111928A95E9F744
:101F30008FEF9FEF9A8F898F87E08E8F4AE050E076
:101F4000B801C7010E946A34065F1F4F0836F2E0ED
:101F50001F07A1F7D0929604C09295046E96ECE00C
:101F60000C94653580E00E94DB0D60E087E290E034
:101F70000E9446340E94250F0E94F40D81E00E94C9
:101F8000DB0D0895883080F49B01982F8AE0989F9C
:101F9000B001112468587E4F4AE050E0C9010E9408
:101FA000123490E080E008958FEF9FEF0895AAE04B
:101FB000B0E0EDEDFFE00C9453359C0137552F3F19
:101FC000310509F068F4BE016F5F7F4F0E94C20FB8
:101FD000892B31F489859A852A96E2E00C946F3535
:101FE00088EC90E0F9CFAAE0B0E0E9EFFFE00C94D4
:101FF00049350BE613E089E5C82E83E0D82E98E139
:10200000E92E92E0F92E27E0922E38E5A32E33E058
:10201000B32E88248394D6010D931D936D014AE05D
:1020200050E0B701CE0101960E941234F8013896B3
:10203000DF01892D1D928A95E9F789819A81D8015E
:1020400011969C938E938F8112968C9312978D810B
:1020500013968C931397888514968C93149789857F
:1020600015968C9315978B819C8117969C938E93D4
:10207000169718961C9218978A8587FF3CC01E9663
:102080001C921E921D9780FF03C0D80118968C9257
:1020900081FF04C0F80190859260908782FF07C09D
:1020A000D80118969C911897946018969C9383FF7A
:1020B00004C0F80190859860908784FF07C0D8011C
:1020C00018969C911897906118969C9385FF04C070
:1020D000F801808580628087015F1F4FFAE0EF0E74
:1020E000F11C88E6E81682E0F80609F094CF2A96FB
:1020F000ECE00C946535F801B686A586C4CFAAE05D
:10210000B0E0E5E8F0E10C944D35E8E0F3E080E57F
:10211000DF011D928A95E9F7E6EEF3E088E3DF013F
:102120001D928A95E9F788E0C82E83E0D82E7F01BA
:1021300008EC11E0F701D182C0824AE050E0B8011A
:10214000CE0101960E94123488E0FE013196D6013C
:1021500001900D928A95E1F789859A85D7011396AA
:102160009C938E931297BAE0CB0ED11CE7E0EE0E53
:10217000F11C065F1F4F0831F2E01F07D9F62A96BF
:10218000E8E00C946935B0E0A0E0E9ECF0E10C94F3
:102190004535FC016280448081E08483EEE0F4E018
:1021A0007490EDE8F4E0E49100916F020695015817
:1021B00010E0000F111F012F1127C5E3D2E024E129
:1021C000C22E22E0D22E3CE6832E32E0932EAA24A9
:1021D000AA94B12C55245A94E719EE2EF12C82E0E2
:1021E000861530F080916D02888380916E0289831C
:1021F000411016C01B821A8296014A81698188812A
:102200000E944A07259683E0C80ED11C8C169D06B5
:1022100031F70E941507CDB7DEB7E0E10C946135C8
:102220008B818823E9F081508B83859DC001112427
:102230006C8170E00E94FF34FB01FF27E25FFB4FDF
:102240008491E82FE719E59DC0011124B7010E9490
:10225000FF3480916F02689FB00111247A83CCCF44
:102260000E94F933B5010E9413358017910724F6B7
:1022700082E0861588F40E94F933B5010E94133577
:1022800088830E94F93320916E022695622F70E0B8
:102290000E941335280F29831A8280916F02893C8E
:1022A00020F088EC8C838B83A7CF8431D8F784E12E
:1022B000F9CF60916C026695669570E04BE050E056
:1022C0008FE091E00E94B035892B19F481E0809372
:1022D00010020E94AA0590930A02809309020895B1
:1022E000B0E0A0E0E6E7F1E10C94493549015A017C
:1022F0006B017C010E943B078401A4016A2D7B2DA8
:1023000088E090E00E94583494014A2D5B2DB6017C
:10231000C70100E20E949535622F83E290E00E949F
:102320004634CDB7DEB7ECE00C946535A3E0B0E001
:10233000ECE9F1E10C944635F82E762EE42E622E6F
:1023400090916C0290FF2FC0E92FE695E695AE2F95
:10235000B0E0A359BE4F8C9180930F029C7F9430C4
:1023600031F59E012F5F3F4F8F2D0E944A074B8111
:1023700069818A810E942A07F0926D0270926E0232
:10238000E0926F02662079F020916C0260917002F9
:10239000709171023F2D472D5E2D809172029091B8
:1023A00073020E9470112396EFE00C946235823024
:1023B00019F4E0906F02E0CF863019F4F0906D02CE
:1023C000DBCF8930D9F38931B9F6E9518E2F81708D
:1023D000582EE695F0E0E75FFB4FE4910E2F10E0FA
:1023E00084E1C82E82E0D82EB12CA12C9BE0892E4E
:1023F000912CC501B4010E94FF348F2D511013C0E0
:10240000860F96014E2D672D0E944A07A00EB11E21
:1024100083E0C80ED11C85E3C81682E0D80649F7D0
:102420000E941507A9CF861BECCFECE6F2E04381B2
:1024300020E1421B08F440E021E0628181810E949A
:1024400096110895ECE6F2E0438120E1420F08F492
:102450004FEF21E0628181810E9496110895ECE6A0
:10246000F2E0628120E1621B08F460E021E0438138
:1024700081810E9496110895ECE6F2E0628120E1EC
:10248000620F08F46FEF21E0438181810E94961171
:102490000895ECE6F2E0818121E043816281805180
:1024A0000E9496110895ECE6F2E0818121E04381DB
:1024B0006281805F0E949611089580917002882346
:1024C00019F081508093700220916C0230916D025E
:1024D00040916E0250916F02609170027091710292
:1024E00080917202909173020E9470110895809100
:1024F0007002833018F48F5F8093700220916C0219
:1025000030916D0240916E0250916F0260917002A5
:102510007091710280917202909173020E94701109
:10252000089590916C0290FF35C09370811133C073
:10253000946090936C02662391F020916C0230912C
:102540006D0240916E0250916F0260917002709125
:10255000710280917202909173020E9470116091D9
:102560006C026695669570E04BE050E08FE091E07C
:102570000E94B035892BB9F01092100281E080934F
:102580000C0220E040916F0260916E0280916D021A
:102590000E94961108958B3210F0986ACACF880F66
:1025A000880F982BC6CF0E945911E8CF80916C02FA
:1025B00086958695815009F48AE261E00E94911225
:1025C000089580916C02869586958F5F8B3208F016
:1025D00081E061E00E949112089590916C0290FF59
:1025E00009C096959695981728F0961718F40E94AA
:1025F000E112089561E00E94911208959091EE0118
:1026000092FB222720F9281779F080FB92F990930A
:10261000EE016091ED017091EE0184E090E00E9486
:10262000643482E00E94ED0C0895CF938091AE0453
:10263000C091AD04C82B8091DE018823C9F00E94AF
:10264000AA052091DC013091DD01821B930B8838B3
:10265000934110F00E94070C8091DE01C82BECEA38
:10266000F1E097E080E0915069F581110E94070C3C
:102670008091A30480958C239091A404892B80934E
:10268000AA0148E050E064ED71E08AEA91E00E941E
:10269000BD35892BA9F088E0EAEAF1E0A4EDB1E0CC
:1026A00001900D928A95E1F7E091B304F091B404A2
:1026B000309731F00280F381E02D8AEA91E00995AC
:1026C000CF9108952191222371F28F5FCCCF109288
:1026D000AE04ECEAF1E086E0DF011D928A95E9F7AD
:1026E00090E080E00E94000690E080E00E94DB0520
:1026F0001092AD040E9415130895AAE2B0E0E3E839
:10270000F3E10C945235EBECF4E08091F10081930D
:1027100084E0E33DF807C9F78091CC04833009F4E5
:102720007FC008F5813009F456C0823009F4C0C07A
:102730008091E80083FFFAC08091CB049091CC0493
:102740009A3008F0F3C0E92FF0E0E755FC4E0C9406
:10275000273569148F1496148F149614E7140915ED
:102760009614131620168A3009F491C08B3009F4A0
:1027700074C08930E9F68091CB048132C9F680912A
:10278000CF049091D004009711F0029789F68091C0
:10279000E800877F8093E8008091E80082FF3BC0DB
:1027A0008091F3009091F20089279827892702975A
:1027B00031F48091F100813011F0863021F4809164
:1027C000F1008093BE048091E8008B778093E8004D
:1027D0000E946D04ADCF8091CB04813A09F0A8CF5F
:1027E0008091E800877F8093E8008091CF049091EA
:1027F000D004892B61F060E090E080E070E00E94FE
:1028000019058091E8008B778093E80091CF68E00C
:102810008FEB94E0F3CF8091C9048111BDCF88CFB5
:102820008091CB04813A09F083CF8091CF049091BD
:10283000D004892B09F07CCF8091E800877F8093BA
:10284000E8008091E80080FFFCCF80911E0180931A
:10285000F1008091E8008E77B9CF8091CB0481326E
:1028600009F066CF8091CF049091D004892B09F0B4
:102870005FCF8091E800877F8093E8000E946D041D
:102880008091CD0480931E010E94671351CF8091E7
:10289000CB04813209F04CCF8091E800877F809390
:1028A000E8000E946D048091CE048093BD0440CF67
:1028B0008091CB04813A09F03BCF8091E800877F7B
:1028C0008093E8008091E80080FFFCCF8091BD04F8
:1028D000BECF803889F0823849F58091CF048F705F
:1028E000873020F58093E9008091EB0085FB8827F5
:1028F00080F91092E90006C08091C7049091C80445
:10290000911182609091E800977F9093E800809306
:10291000F1001092F1008091E8008E7727C0282FF7
:102920002D7F21F48823A1F0823029F18091E800E5
:1029300083FF0AC08091E800877F8093E800809140
:10294000EB0080628093EB00AA96E3E00C946E3576
:102950008091CD04813051F7933009F080E080936D
:10296000C8041092E9008091E800877F8093E80016
:102970000E946D04DBCF8091CD048111F2CF809154
:10298000CF048F702FEF280F263080F68093E90058
:102990002091EB0020FFE5CF933031F48091EB00E4
:1029A00080628093EB00DDCF9091EB00906190937B
:1029B000EB0021E030E001C0220F8A95EAF7209376
:1029C000EA001092EA008091EB008860EACF811162
:1029D000ADCF1091CD041F778091E3008078812BDB
:1029E0008093E3008091E800877F8093E8000E9455
:1029F0006D048091E80080FFFCCF8091E300806847
:102A00008093E30083E0111101C082E08093C90448
:102A10008DCF8058823008F089CF2091CD0430913D
:102A2000CE042C3DA3E03A07A1F583E08A838AE235
:102A300089834FB7F894DE01139620E03EE051E21F
:102A4000E32FF0E050935700E49120FF03C0E2959C
:102A5000EF703F5FEF708E2F90E0EA30C0F0C796C6
:102A60008D939D932F5F243159F74FBF8091E800DC
:102A7000877F8093E8006AE270E0CE0101960E94B1
:102A800019058091E8008B778093E8004FCFC096BE
:102A9000E7CF8091CF049091D004432F5527433046
:102AA000510509F44FC078F54130510509F445C08E
:102AB0008BE590E0EEE5F6E04230510509F036CFC7
:102AC0002091E800277F2093E8002091D1043091E5
:102AD000D2048217930708F49C0140E021153105C8
:102AE00009F06EC041116CC08091E80082FDC9CF31
:102AF0008091C904882329F2853019F28091E80079
:102B000083FFF2CFBECF4132510509F44AC04232B1
:102B1000510509F00BCF8330910508F007CFFC0178
:102B2000EE0FFF1FE556FE4F0190F081E02D885615
:102B30009E4FDC018C9190E020C082E190E0E9EBB7
:102B4000F6E0BECF332721303105D9F078F02230BE
:102B50003105F9F02330310509F0E8CEEBECF6E071
:102B6000E4918E2F90E0EBECF6E007C0EDE0F7E0AB
:102B7000E4918E2F90E0EDE0F7E0009709F4D6CED7
:102B80009FCFEFEFF6E0E4918E2F90E0EFEFF6E0CD
:102B9000F4CFE9EEF6E0E4918E2F90E0E9EEF6E076
:102BA000ECCF8330910508F0C1CE880F991FFC014E
:102BB000EF55FE4F0190F081E02D89E090E080CF4D
:102BC0008091C904882309F45CCF853009F459CF7A
:102BD0008091E80083FD55CF8091E80082FD84CF8D
:102BE0008091E80080FF7ACF8091F3009091F2000D
:102BF0008927982789272115310519F088309105F3
:102C000050F041E0089709F040E08091E8008E77AD
:102C10008093E80063CF44914093F10031962150B6
:102C200031090196E8CF803809F080CE8091E80024
:102C3000877F8093E8008091CA048093F1006BCE77
:102C4000811174CE1091CD04123008F06FCE8091B6
:102C5000E800877F8093E8001093CA040E946D0407
:102C60001123D1F084E08093C90442E061EC81E05B
:102C70000E948C0442E261EC84E00E948C0442E2F7
:102C800061EC82E00E948C0442E260EC83E00E94EE
:102C90008C048091C9044ACE8091E30087FDE2CF85
:102CA00081E0E1CF0E9467132FEF84E39CE0215085
:102CB00080409040E1F700C0000088E19AE00FB644
:102CC000F894A895809360000FBE90936000FFCFAA
:102CD000CF93DF93EC014A855B856E857F850E94EB
:102CE00032068B810E94270C8C810E942F0C0E943F
:102CF000151386E0FE0111928A95E9F7DF91CF91D5
:102D00000895CF93DF93EC018D8181FD17C0826020
:102D10008D838091AD049B81892B8093AD0480913C
:102D2000AE049C81892B8093AE040E9415134885C4
:102D300059856E857F85CE010E9432061092B004BF
:102D40001092AF048D8180FD03C0CE010E946816F1
:102D5000DF91CF910895882321F00E94270C0E94D3
:102D600015130895882339F09091AD04892B809331
:102D7000AD040E9415130895882321F00E942F0CA2
:102D80000E9415130895882339F09091AE04892B81
:102D90008093AE040E9415130895882309F44DC052
:102DA000823879F40E94250681FF47C089E30E949A
:102DB000C2050E94151389E30E94B6050E941513EF
:102DC0000895833859F40E94250680FF36C083E5B4
:102DD0000E94C2050E94151383E5EECF843859F492
:102DE0000E94250682FF29C087E40E94C2050E9436
:102DF000151387E4E1CF9CEF980F913AE8F290E247
:102E0000980F983050F4877091E001C0990F8A951F
:102E1000EAF7892F0E942F0CD1CF9BE5980F9330B2
:102E200028F490E080E00E9400060895885A8B31D3
:102E300020F490E080E00E94DB050895FF920F935C
:102E40001F93CF93DF930091A8041091A90401155B
:102E5000110509F451C01092A7041092A604109213
:102E6000A3041092A404D8011696CD91DC91AE0172
:102E70005A9541155F4108F4D07ED1E0C11101C0DF
:102E8000D0E0F82ED8011996ED91FC911A97309761
:102E900031F01B966D917C9180E00995D823DD235C
:102EA00039F08CEF8C0F813A68F58C2F0E94B605B3
:102EB000E091A804F091A90440815181FF2071F0B4
:102EC000808584FD0BC08091A504882339F091E0B2
:102ED0009A01215031092F333E4708F090E090FFCE
:102EE00003C0CA010E9438060E9415131092A9045B
:102EF0001092A8041092A504C801CDB7DEB7E5E092
:102F00000C946C350E9415138C2F0E94CD16D0CFD7
:102F1000A7E0B0E0EEE8F7E10C9448358E010F5FD2
:102F20001F4F87E0F80111928A95E9F780E6E82EB5
:102F300081E0F82E6801AA24A394B12C2DE6822EFC
:102F400021E0922EF70181917F018F3F09F440C06B
:102F5000F894E82FE295EF70F0E021A18F70A501C1
:102F600002C0440F551F8A95E2F7CA01922F982B91
:102F700091A392A18095892382A3789400C0E7E66B
:102F8000F1E0712C31E021912F3F09F44AC0A22FCA
:102F9000A295AF70B0E090968C9190E02F7002C037
:102FA000959587952A95E2F780FD3BC0832F782A77
:102FB000330F8E169F0639F7F701319780818F3FC7
:102FC00011F00E94E70950EA5A95F1F7F601708274
:102FD000FFEFCF1ADF0A47E6E41641E0F40609F0F6
:102FE000B1CF47E050E0B80185EE91E00E94BD35D9
:102FF000892BD9F087E0F801A5EEB1E001900D92A0
:103000008A95E1F781E08093E4010E94AA059093FC
:10301000E3018093E20110E0812F2796EDE00C940C
:10302000643580E0C4CF10E01FC01091E40111238B
:1030300091F38091E2019091E3010E948F05059741
:1030400050F347E050E065EE71E080E092E00E94CE
:10305000BD35892B41F387E0E5EEF1E0A0E0B2E079
:1030600001900D928A95E1F71092E401D5CFA8E086
:10307000B0E0EDE3F8E10C94533565EE7EEF90E0BF
:1030800080E00E94643460E082E090E00E94463478
:1030900081E08093DF0161E083E090E00E944634AC
:1030A00060E074E184E090E00E94643460E086E0D7
:1030B00090E00E94463460E087E090E00E94463451
:1030C00040E050E0BA0188E090E00E94583460E0AF
:1030D00083E290E00E94463460E08CE090E00E9441
:1030E000463460E08DE090E00E94463419821A82F6
:1030F0001B821C821D821E821F82188648E050E0BF
:1031000067E170E0CE0101960E94363440E050E065
:10311000BA018FE190E00E94583480E00E94DB0DFC
:103120000E94B20F40E050E0BA018FE090E00E94B0
:10313000583440E050E0BA0183E190E00E945834F6
:103140002896E2E00C946F358B3109F478C040F595
:103150008B3071F078F4863009F458C020F4853053
:1031600059F180E00895873009F45AC08830C9F7D2
:1031700081E00895803109F470C068F48E3089F7D9
:1031800090919404892F8B7F92FF846080939404A4
:1031900082FD5FC0EDCF863159F3893149F3E1CF2C
:1031A0008A3289F1E0F4873241F120F48E31C8F29D
:1031B0008D515FC08932A9F6809195049091960453
:1031C000892BB1F20E9467132FEF84E39CE021501A
:1031D00080409040E1F700C000000E947E058334EB
:1031E00048F48A3308F044C0853339F0883309F451
:1031F000BFCFB7CF833409F0B4CF81E00E94270D51
:103200000E946713B5CF0E943718B2CF8091940403
:10321000817F8E7F8093940481E08093930408954E
:1032200090919404892F8E7F90FF81608093940405
:1032300080FD9ECF897F877F8093940499CF909162
:103240009404892F8D7F91FF82608093940481FF85
:103250008FCF809194048160EFCF90919404892F57
:10326000877F93FF88608093940483FDF2CF80CFA3
:10327000895391E001C0990F8A95EAF7892FBECF53
:10328000CF938823D1F0C82F8238C9F40E94250635
:1032900081FD13C089E30E94C2050E9415132FEF20
:1032A00087EE93E0215080409040E1F700C000009D
:1032B00089E30E94B6050E941513CF9108958338C3
:1032C000A1F40E94250680FDF8CF83E50E94C20587
:1032D0000E9415132FEF81EE94E021508040904022
:1032E000E1F700C0000083E5E4CF8438A1F40E9438
:1032F000250682FDE2CF87E40E94C2050E941513D5
:103300002FEF81EE94E0215080409040E1F700C023
:10331000000087E4CECF8CEF8C0F813AB0F580911E
:103320009304882399F08130D9F010929304ECEA49
:10333000F1E082EB91E02191C21709F452C08E179F
:103340009F07C9F78C2F0E94C205B5CF8091AE04AC
:10335000823269F78C2F0E94A4188111AECFE7CF7B
:103360008091AE048232B1F3C43161F028F4CB30E5
:1033700039F080E08170F1CFC93221F0C833C9F74C
:1033800081E0F8CF10929304F4CF80E28C0F883064
:1033900068F4C77021E030E001C0220FCA95EAF757
:1033A0008091AE04822B8093AE0485CFEBE5EC0FC9
:1033B000E33040F4F0E0E95DFE4F808190E00E9450
:1033C00000067BCFC85ACB3108F077CFEC2FF0E066
:1033D000EE0FFF1FE65DFE4F808191810E94DB05AD
:1033E0006CCF8C2F0E94B6050E941513ABCF1F9394
:1033F000CF93DF93182FEB010E944019209739F4E7
:10340000812F0E94CD16DF91CF911F9108958FE9F2
:103410009FE00197F1F700C000002197EFCFB0E0E7
:10342000A0E0E5E1FAE10C944D356B01C42FD22FF9
:10343000FC0185818823A9F04093AC040E94AA0571
:103440009093AB048093AA04C77081E001C0880FF9
:10345000CA95EAF70E94C316CDB7DEB7E8E00C9430
:1034600069351091AC04141339C08091AA0490916D
:10347000AB040E948F057C01C6010E94D70FE8169D
:10348000F90660F5C0E2CD0F1D17C1F080E2810F93
:10349000883048F4177081E0012E01C0880F0A942B
:1034A000EAF70E94BC16C83000F581E09D2F9770A6
:1034B00001C0880F9A95EAF70E94C31670E060E099
:1034C000802F0E94F719C83038F6D77081E001C00C
:1034D000880FDA95EAF70E94BC16BECFC77081E06C
:1034E00001C0880FCA95EAF7F6CF70E060E0802F40
:1034F0000E94F719B1CFB0E0A0E0E1E8FAE10C9446
:103500004B35EC018AE0A82E2881222309F4A6C0BD
:10351000213009F049C08981813079F48E010E5F34
:103520001F4F8A8160E570E0893311F070E060E040
:103530000E94F719E8012196E7CF823039F48E0115
:103540000E5F1F4F8A810E944019F4CF833039F4F7
:103550008E010E5F1F4F8A810E94CD16EBCF843003
:1035600011F02196E8CF2A81229690E080E0AE010A
:103570004F5F5F4F2053330B2A30310550F00097D7
:10358000D1F2EFE9FFE03197F1F700C000000197B9
:10359000F6CFA89EB001A99E700D1124C901860F17
:1035A000971F2981EA01E3CFE22FF0E0EF5BF84FAC
:1035B000B490822F86958695869590E0FC01EF5C0D
:1035C000F84FE4902770F12C022E02C0F594E79496
:1035D0000A94E2F7F1E0EF22FF24FC01EF5DF84FDF
:1035E000C490D12C022E02C0D594C7940A94E2F75D
:1035F00031E0C322DD24FC01EF5EF84F049110E0BE
:1036000002C0159507952A95E2F701701127E1147C
:10361000F10419F081EE0E944019C114D10419F08F
:1036200086EE0E94401970E060E08B2D0E94F71931
:10363000C114D10419F086EE0E94CD16E114F104F4
:1036400019F081EE0E94CD160115110509F473CF12
:1036500070E060E08CE20E94F7196DCFCDB7DEB765
:10366000EAE00C946735CF93DF93EC010E942A0DBA
:103670009E01205E31092830310510F0209741F479
:103680000E94C3168C2F0E944019DF91CF9108959C
:103690000E94B216F7CFA6E0B0E0E1E5FBE10C94A2
:1036A00053359093750280937402811520E292073E
:1036B00030F40E94331B2696E2E00C946F3580EFC5
:1036C00089838A830E94AA058160682F9C838B83EB
:1036D00049815A817C8181E091E00E940E27EBCFE5
:1036E000A8E0B0E0E6E7FBE10C944335DC0114967A
:1036F0002C91222309F45FC17C0161E00E94F50E48
:103700008C01F7018581882319F18091AF04909194
:10371000B0040097E9F008171907D1F09927F4E0F1
:10372000880F991FFA95E1F7FC01E357FD4F2081BF
:103730002460208388579D4FDC010D931C930E94C9
:1037400081161092AD0461E0C7010E94F50E8C0154
:10375000F7018581882309F4B8C0C80197578038DC
:10376000910508F0E6C0D02EFFE0F01708F413C171
:103770008FEF93E00E94223481110DC108E612E020
:10378000D11038C0E4E04E2EAE014F5F5F4F3A01DA
:1037900033243A94D301E42D1D92EA95E9F76801A8
:1037A000FFEFCF1ADF0AC8010E94223489838823E1
:1037B00009F4F1C08130D1F4580122E0A20EB11C0D
:1037C000C6010E942234582E8A83882309F4E3C05C
:1037D0008FEF850D8330E0F4680133E0C30ED11C18
:1037E000C5010E9422348B838823D9F1C3010E9432
:1037F0007B1A37C0011524E0120709F4CCC0C801B8
:103800000E942234811101C0DA940F5F1F4FB8CF9C
:103810008BEF850D833068F5480143E0840E911CE1
:10382000C5010E9422348B8364018823D1F0680192
:1038300054E0C50ED11CC4010E9422348C8388231D
:1038400081F08B819C818130AFEF9A0710F0982F27
:103850008827B6E05B1639F0E7E05E1639F00E9483
:10386000BE29860197CF0E944B1BFBCF0E943829AF
:10387000F8CFF4E065015F12F4CFC5010E94223455
:10388000B82E680124E0C20ED11CC80103960E9424
:103890002234BB2009F47FC0882309F47CC0482F60
:1038A0004150550B349EC001359E900D1124AB2D17
:1038B000A150BB0B8A0F9B1F019798F2EFE9FFE025
:1038C0003197F1F700C00000F7CF680127E5D21A61
:1038D0003FEFC316D10411F008F004C76EE772E0A1
:1038E0008C2D0E94C20F892B21F5C60164E0880F40
:1038F000991F6A95E1F7FC01E857FD4F22812130BD
:10390000A1F520917E0230917F02232B91F020912E
:10391000800230918102232B61F02091820230914C
:103920008302232B31F42091840230918502232BD2
:1039300021F1D70115965C90552009F442C00E354F
:10394000BCE71B0729F10F35ECE71E0741F00D35E9
:10395000FCE71F07A1F5809104018823C9F01092AC
:10396000040180E00E941E1716C0223011F720913A
:10397000820230918302232BE1F2FC01E357FD4FD9
:1039800020812E7F208388579D4F0E948116D1CFA2
:1039900081E0809304018091D301877061F0D701A9
:1039A00015968C91882339F08091EE0182FF03C037
:1039B00082E00E94ED0C2896E2E10C945F355524DC
:1039C000539480910401882309F4DAC5480120EE5C
:1039D000821A91083090DE018091D001382A8091BE
:1039E000AE04382A38E08316910408F0DBC0980151
:1039F0002770332781E090E001C0880F2A95EAF70D
:103A0000552009F4CCC0382AD7018D919C910E9491
:103A1000520C21E030E0F90102C0EE0FFF1F8A9541
:103A2000E2F7FE83ED832091A8043091A904388742
:103A30002F836090B2017090B301212CE22DF0E051
:103A4000EE0FFF1FE75AFC4FC080D180C114D10494
:103A500009F46AC5311005C0D60112968C91811106
:103A6000DEC0F601838190E02D813E818223932385
:103A7000892B09F4D4C08085982F977009F487E0CA
:103A800038E08316910408F0A7C0552009F4A0C0BF
:103A900086958170882309F4C2C0D601AD90BC9090
:103AA0000A151B0519F4552009F4B9C0EF81F885F2
:103AB000CE16DF0609F4B3C0D6011D96ED91FC9138
:103AC000309721F08081882309F4A9C0632DC601B5
:103AD0000E948906882309F4A2C00A151B0509F073
:103AE00010C60115110509F47BC0511079C0412C95
:103AF00081E0A614B70409F080E080FF90C080E068
:103B00000E941E17D092A904C092A80481E080935D
:103B1000A504F60185818093A30441100DC0AB2854
:103B200059F0808191819C0124503109213A31055D
:103B300008F059C00E94B605D6011696AD90BC900B
:103B4000C5019A9581159F4110F4E0EEBE227724BD
:103B50007394C50101978F339E4708F0712CD601ED
:103B60001996ED91FC911A97309731F01B966D9153
:103B70007C9181E009957822772071F0F6018681A9
:103B800097810E942A0D8093A404C501F8E08F1646
:103B9000910460F50E9438060E9415132EC080958E
:103BA000382232CF552009F4A8C41093B3010093F2
:103BB000B2010E949E0560939F047093A0048093BD
:103BC000A1049093A2041092A7041092A6041CCF03
:103BD00082FB882780F95ECF552009F181705ACF8A
:103BE000452C81E08ACF0E94CD16A6CF0497813A5A
:103BF000910548F48A2D0E94C205442009F4C0C4EE
:103C00000E941513C8CE0E9415138FE39CE90197FB
:103C1000F1F700C000008A2D0E944019EECF2394D6
:103C20000DCFFC01208131810217130709F0A1C4D7
:103C30005110A1C41092A50480E00E941E17A0C4D8
:103C400090E080E0DEC4F90144855585668577857E
:103C5000C9010E943206D60115968C9181FFD5C408
:103C6000C6010E9468168091AF049091B0040817B5
:103C7000190709F0CAC41092B0041092AF04C5C469
:103C800006E221EE41EE6AE17CE7C7010E940F1ACD
:103C900082CE07E225EE45EE6BE17CE7F6CF06E249
:103CA00021EE40EE68E17CE7F0CF07E225EE44EE3E
:103CB00069E17CE7EACF06E221EE42EE6CE17CE7C7
:103CC000E4CF07E225EE46EE6DE17CE7DECF08E2C9
:103CD00021E045EE6EE17CE7D8CF8091ED01816077
:103CE0008093ED0195C08091EE0188608093EE0194
:103CF0008FC08091ED018260F3CF8091ED018460EF
:103D0000EFCF8091ED018860EBCF8091EE01816073
:103D1000EDCF8091EE018260E9CF8091ED0180616D
:103D2000DFCF8091ED018062DBCF8091ED01806477
:103D3000D7CF0E9467138091ED018068D1CF809129
:103D4000ED018860DCCF8091EE018260E0CF809150
:103D5000ED018E7FC5CF8091EE01877FC7CF809127
:103D6000ED018D7FBDCF8091ED018B7FB9CF80912B
:103D7000ED01877FB5CF8091EE018E7FB7CF809127
:103D8000EE018D7FB3CF8091ED018F7EA9CF809121
:103D9000ED018F7DA5CF8091ED018F7BA1CF0E949A
:103DA00067138091ED018F779BCF8091ED01877F25
:103DB000DCCF8091EE018D7FE0CF8091ED0182FB21
:103DC000992790F921E0922790FB82F990FB83F9E3
:103DD00087CF8091EE01982F909591708E7F892BDF
:103DE00090FB81F983CF9091ED01892F8F7B96FF16
:103DF000806476CF0E9467139091ED01892F97FB25
:103E000087F980586DCF61E08EE090E00E944634E3
:103E10006091ED017091EE0184E090E00E946434C5
:103E20000E946713B8CD60E0EFCF9091ED01892F2C
:103E30008F7E94FF806154CF9091ED01892F8E7F0A
:103E400090FF81604DCF9091EE01892F877F93FF86
:103E500088604CCF85E30E94C205D2CE85E34EC474
:103E60008091AE048272F801E052F847E531F10525
:103E700008F093C0E25CF04E0C942735531F791F75
:103E8000801F851F8A1F8F1F941F991F9E1FA31FAE
:103E9000A81FAD1FB01FB51FB81FBB1FBE1FC11F7E
:103EA000C41FC71FCA1F80916C0280FF19C0282F32
:103EB0002E7F20936C0230916D0240916E025091E2
:103EC0006F02609170027091710280917202909104
:103ED00073020E947011109210020E9415075BCDB0
:103EE000816080936C0261E0869586950E949112B4
:103EF00052CD46ED52E161EE72E10E940F074BCDCB
:103F000041EE52E166ED72E1F8CF49E452E163E53A
:103F100072E1F3CF43E552E169E472E1EECF4FE2A3
:103F200052E16CE372E1E9CF4CE352E16FE272E1FE
:103F3000E4CF45E152E162E272E1DFCF42E252E1D9
:103F400065E172E1DACF4DE552E167E772E1D5CF85
:103F500047E752E16DE572E1D0CF61E081E0C6CF85
:103F600065E082E00E94ED1216CD68E086E0FACFAF
:103F70006EE089E0F7CF64E18FE0F4CF67E185E19F
:103F8000F1CF61E088E1B2CF62E289E1EBCF61E09D
:103F900083E2ACCF6AE285E2E5CF0737FCE71F0793
:103FA00009F45CC008372CE7120709F45DC0F7017B
:103FB00087819085009709F487C00E94F10A8C01DF
:103FC000F701C580B680B2943FE0B3228091D3015F
:103FD000877001F1AC2CCC20F1F0812F807F8034F0
:103FE00061F080E2800F8830A8F0812F807E8032DF
:103FF00021F4023078F0BB2069F08091EE0182FF5D
:1040000009C082E00E94ED0C8091D3018770AA2440
:10401000A3948111A12CD12ED2942FE0D222FBE0C7
:10402000FD1508F4CAC0ED2DF0E0E75EFF4D0C94DD
:1040300027357B207B20B120B1205D21DD20DD20D4
:10404000DD207C21E621F721F72181E00E94040D8B
:1040500043E062E081E00E94C00C9DCC81E00E94C0
:10406000E00CF6CF82E0F2CF82E0F9CF0B359CE78F
:10407000190741F10C35ACE71A07D1F00A351C4796
:1040800009F095CF81E01BC00E946713EFEFF4E3C6
:104090002CE0E150F0402040E1F700C000000E9419
:1040A0007E056FEF7FEF90E080E00E94643418C3DC
:1040B0008091EE0182FB882780F991E089270E9498
:1040C000FE1275CF80E0FBCF8581008111818823AE
:1040D00069F0C8010E94900ED82E682FC8010E9476
:1040E000860CB8018D2D0E94730E67CFC8010E9407
:1040F000520CD82EF6CF212F2F70D22E107F19F010
:10410000D29490EFD922CC20B9F0DD2069F080E282
:10411000800F883010F0011109C08091AE04D82AB8
:10412000D092AE040E941513802F3FC08091AD0441
:10413000D82AD092AD04F6CF802F0E94CD16DD2074
:10414000E1F180E2800F883010F0011104C08D2D64
:104150000E942F0C03C08D2D0E94270C0E94151366
:104160002CC0312F3F70D32E107F103219F0D29413
:1041700080EFD822002349F0013009F47EC0CC2022
:1041800009F48AC0BB20C9F1CFCF8091EE0182FD36
:1041900030C0CC2069F0DD2039F08091AE04D82AFF
:1041A000D092AE040E94151380E00E94401905C011
:1041B00080E00E94CD16D110CACFAA20A9F080912C
:1041C000D30180FD11C0F7011582869586958695ED
:1041D0000E94040DC7010E94701B8091D301869537
:1041E000869586950E94E00C60E0C7010E94F50E5E
:1041F000E2CBCC2069F1B11004C08D2D0E94C31612
:10420000DCCF41E0B41210C01091DE018D2D81236E
:10421000D81699F20E94AA059093DD018093DC01E3
:10422000D12AD092DE01C9CF55E0B512C6CF8D2D6F
:104230000E94C3168D2D0E94120C8091D0019D2DDD
:104240009823D91609F4B9CFD82AD092D001B5CF86
:10425000B1100AC08D2D0E94BC168D2D0E94120C2B
:104260008D2D0E943E0CA9CF81E0B812A6CF80917F
:10427000AE048D2109F4A1CFEDCFCC2029F095E03B
:104280009B1508F49ACFB9CFA4E0AB1508F495CFED
:104290008D2D0E94BC1691CFBB20D1F3093349F478
:1042A000BFEFE7EEF3E0B150E040F040E1F700C0CF
:1042B0000000802F0E94CD1680CF812F8695869595
:1042C000837041F0813079F088EF8D0D843008F0F3
:1042D00074CF3CC0C8019370C11002C080E090E070
:1042E0000E9400066ACFC8019370C11002C080E02E
:1042F00090E00E94DB0561CF812F837091F5C110A2
:1043000025C0402F429546954770440F440F802F9B
:104310008F70042E01C0880F0A94EAF720E004FF92
:1043200007C02FE030E001C0220F4A95EAF7209540
:10433000169516951370123079F060F43091DF0104
:10434000113039F0822B83230E94270D0E9425060D
:1043500034CF832B822BF8CF282B8091DF0182274B
:10436000F3CF8695CC2011F0812F8170882371F3D3
:10437000402F429546954770440F440F802F8F7011
:10438000042E01C0880F0A94EAF720E004FF07C05A
:104390002FE030E001C0220F4A95EAF720951695EC
:1043A00016951370123069F050F43091EC01113011
:1043B00029F0822B83230E94BD0CC8CF832B822B34
:1043C000FACF282B8091EC018227F5CF1F70CC20EB
:1043D00039F0812F0E94040D802F0E94C316B6CFA2
:1043E000802F0E94BC16812F0E94E00CAFCF023FAD
:1043F000B9F170F4003FD9F0013F91F0CC2009F4FD
:1044000068C0BB2009F462C0802F0E9440195CCFB5
:10441000033F69F1043F91F78091EE0182FD32C0C4
:10442000812F8F71CC2001F10E94040D4DCFCC2043
:1044300091F024E02B1508F447CF1F7181E090E044
:10444000012E01C0880F0A94EAF79091EC018927A8
:104450000E94BD0C39CF35E03B1508F435CFEDCFC8
:10446000812F8F71CC2001F30E94E00C2DCF80E0D2
:10447000CC2071F31F7181E0012E01C0880F0A94D6
:10448000EAF7E6CFCC20B9F08091D3018770843071
:1044900049F40E94370C812F8F710E94E00C0E941A
:1044A0002506A2CE44E063E04B15C8F3812F8F713F
:1044B0000E94100DF4CF54E05B1520F40E94370CDD
:1044C00064E0F4CF81E00E94ED0CE9CF812F8F7181
:1044D000ABCFBB2079F0093349F48FEF97EEA3E01F
:1044E00081509040A040E1F700C00000802F0E9462
:1044F000CD16EACE812F8F71B7CF8091B201909106
:10450000B3010817190781F41092B3011092B20198
:1045100010929F041092A0041092A1041092A20481
:104520001092A7041092A6048091A8049091A90467
:10453000009731F1A8E08A16910408F072CB632D40
:104540000E94890681111CC081E00E941E17F8019B
:10455000E851FC47E730F10508F057C0EE54FD4D37
:104560000C9427354F1E551E401E491E5B1E611EB2
:10457000671E552029F0DC0118968C9185FF5CCBD5
:10458000C80197558F3F910509F008F7F801FF27FB
:1045900044E0EE0FFF1F4A95E1F79F0128573D4F7A
:1045A0006901D70115969C911597E357FD4F8081BE
:1045B00090FB80F9808315968C91882309F443CB76
:1045C0000E94AA059093FA018093F901F601828175
:1045D0008F5F82838091AD049091AE04892B838399
:1045E0008091DE0184834681578166857785C60187
:1045F0000E943206D60115968C9181FD21CB902F19
:10460000812F9093AF048093B004F70185818823B4
:1046100009F46AC01092AC04C8019057839708F05F
:1046200041C084E090E00E9430349093EE0180938A
:10463000ED01F801E150F047E232F10508F04DCB11
:10464000EC5DFC4D0C942735A71E1C1FAF1E791E78
:104650007D1EB31E811EB71EC31E8D1E151F911E0B
:10466000C71E951ECB1EF31E991ECF1EFA1E9F1E3F
:10467000D51EDD1E851EBB1E891EBF1EA31ED91E94
:10468000E91E031F131F731EAB1E231F8091AE0470
:104690008A7A91E009F490E09093B4018111DACB29
:1046A00089E2D9CB0631FCE71F0781F307372CE7F6
:1046B000120709F4CACC08373CE7130709F4D2CC37
:1046C00003303CE7130709F4ECCC08F0CFCC01151C
:1046D0005CE7150709F4D8CC01301C4709F067CC1A
:1046E0000E945216512C6DC906314CE7140709F08F
:1046F000B7CB8091B4018111B1CB89E20E94B6059C
:104700007FCA412CA114B10409F46BCAF0C9B0E00E
:10471000A0E0EDE8F3E20C944E358091CD01807F6E
:1047200009F051C08091CC01882309F44CC0E0917C
:104730001C0589E0D82E8091D3048E1709F443C05C
:104740000E2F10E0ED9DF0011124EC52FB4F8481FF
:104750008823F1F1D09EE001D19ED00D1124FE01FD
:10476000EC52FB4F91818091C801981331C0908128
:104770008091C70198132CC08581811129C0E280E6
:10478000F3808091C9019091CA01E81AF90A60E0AA
:1047900087EC91E00E94F50E0E94D70FE816F9060B
:1047A000B8F48091CD018F7080618093CD01C652A5
:1047B000DB4F88818F708061888387EC91E00E9455
:1047C000701B0E94480CCDB7DEB7E7E00C946A3549
:1047D000F8013196E770AFCFA8E1B0E0E2EFF3E285
:1047E0000C9446358C0186E0F801DE015396019069
:1047F0000D928A95E1F7F801F480E58087EC882E28
:1048000081E0982E8091CB0181112AC0F11003C064
:10481000FF24F3941CC0EE20F9F0C8010E94CC0ED6
:10482000F82E8823C9F089E0F801A7ECB1E00190E7
:104830000D928A95E1F78091CB01813031F480911E
:10484000C7019091C8010E94BF0E0E9487238F2D3F
:104850006896EFE00C946235C8010E94701BD8CFB7
:10486000C280D380B090CC018091C9019091CA01DF
:104870003601681A790ABB2009F41FC15080A18053
:1048800060E087EC91E00E94F50E0E94D70F681659
:10489000790608F0BCC0FF2009F4BACF8091CD01A1
:1048A000382F307F2091C801F8019181311160C00B
:1048B000FE2C29131DC02091C7019081291318C017
:1048C0004091CE015091CF01278130854217530787
:1048D00079F4E11046C08F7080618093CD0187EC40
:1048E00091E00E94701B8091CD01F8018683AFCFCB
:1048F000E11037C06A2D852D0E9400046A2D852D98
:104900000E940004E82E8111A2CF5B8AAC8A8B89B9
:104910009C890E94BF0E292F22952F70243058F4B5
:104920009F70223080F0992391F0F8019681907F5A
:1049300071F4FE2C8CCF2A50223068F0C8010E94FE
:10494000701BEB2CF6CF992311F0882391F3805E36
:104950008830A0F7EECF803F60F3815F833070F73F
:10496000E8CF8091CD0181608093CD01F12C6FCF94
:1049700029131EC02091C7019081291319C04091AD
:10498000CE015091CF01278130854217530781F422
:10499000E1100EC08683C8010E94701B89E0F801F7
:1049A000A7ECB1E001900D928A95E1F7FB2C4FCF77
:1049B000C8010E94CC0E882309F44ECFEE2009F4E2
:1049C0004BCF8091CD018032B8F02091C70130915A
:1049D000C8013B872A87DD86CC869091CB019E87D4
:1049E0001F86888B8091CE019091CF019A8B898B05
:1049F000CE010A960E94701B89E0F801A7ECB1E095
:104A000001900D928A95E1F70E94872301CF809152
:104A1000CD01982F907F51F487EC91E00E94701B9C
:104A200089E0F40111928A95E9F7A0CFFF2009F4FB
:104A3000EFCE2091C801F801918129131AC020916D
:104A4000C7019081291315C04091CE015091CF012B
:104A5000278130854217530761F4E1100AC086832D
:104A6000C8010E94701B89E0F40111928A95E9F750
:104A70009DCFC8010E94CC0E882309F4EDCEEE2014
:104A800009F4EACE8091CD01803208F4B5CF2091AF
:104A9000C7013091C8013A832983DC82CB8290918F
:104AA000CB019D831E828F838091CE019091CF0197
:104AB00099878887CE0101969DCF60E087EC91E0D1
:104AC0000E94F50E0E94D70F6816790608F0A8CF4D
:104AD000FF2009F49DCEFE2CEE2009F4BDCE90916E
:104AE000C801F8018181981336C09091C701808177
:104AF000981331C02091CE013091CF0187819085EC
:104B00002817390741F58091C9019091CA01C81A47
:104B1000D90AF8ECCF16D104A8F49091CD0190FDFC
:104B200011C0907F79F08091CD01F8018683903F8C
:104B300031F0982F907F905F8F70892B8683C8010A
:104B40000E94701B89E0F801A7ECB1E001900D9282
:104B50008A95E1F77CCEC8010E94CC0E81114CCF22
:104B60008091CD0181608093CD01C8010E94701BAE
:104B70006ECEA2E1B0E0EFEBF5E20C9451350A877E
:104B80001B872C873D874E875F87688B798B8A8B45
:104B9000CE010A960E94EC2381112AC089E0FE0111
:104BA0003A96DE01119601900D928A95E1F78E8575
:104BB0008823F1F02091D30430E0C9010196877079
:104BC000992740911C054817190659F199E0929FC1
:104BD000D001939FB00D1124AC52BB4FFE01319612
:104BE00001900D929A95E1F78093D3040E94480CAE
:104BF00019E080911C059091D3048917F9F0819FE9
:104C0000C00111248C529B4F0E94EC238823B1F0E9
:104C100080911C0590E001968770992780931C0570
:104C2000E8CF0E9467131092D30410921C0589E00C
:104C3000E7ECF1E0DF011D928A95E9F76296E4E086
:104C40000C946D35EF92FF920F931F93CF93DF93E8
:104C500080911E04882361F0E091E5038DE0F82E39
:104C600080911E04E81748F010921E041092E5038C
:104C7000CDB7DEB7E6E00C946B35EE24E394EE0E90
:104C8000E092E503CE2FD0E0EF9DF0011124E15E2C
:104C9000FB4F84818823E9F087819085892B21F45B
:104CA00081859285019659F4008111812281338199
:104CB000448155816681778180850E94B925FC9E5B
:104CC000F001FD9EF00D1124E15EFB4F1482109265
:104CD000AD04EE2DC5CF1092920410929104109263
:104CE0001D018091900480938F040E94D7060E943A
:104CF00022260895B0E0A0E0E0E8F6E20C94443506
:104D0000C0918F0497E0992E01E010E02DE0322E43
:104D100034E0432E55245394809190048C1309C0A1
:104D20000E9422260E94D706CDB7DEB7E1E10C949F
:104D30006035D0E0FE01EE0FFF1FE957FB4F808189
:104D40009181989ED001999EB00D1124AA51BC4F1B
:104D500014962C911497211159C060901E04EFE114
:104D6000F4E030E020E0812C5D01261508F04CC015
:104D7000E384F484D501CD90DC906FEF7FEF712C4C
:104D8000472D50E0DA01AA0FBB1FAC0DBD1D0D90E1
:104D9000BC91A02D109731F0EA16FB0609F4BA0178
:104DA0007394EECF6F3F7607A9F1D80102C0AA0F26
:104DB000BB1F6A95E2F78A2AB801072C02C0660F6A
:104DC000771F0A94E2F7AB0141505109841615068A
:104DD00001F5329EF001339EF00D1124E15EFB4F90
:104DE000989ED001999EB00D1124AA51BC4F1296E5
:104DF0002D913C9113973087278344821082118232
:104E00009287818715965C920E94A9062196C370AD
:104E100083CF14822F5F3F4F3D96A7CFAEE1B0E026
:104E2000E4E1F7E20C9443354B8B5C8B6D8B7E8B0E
:104E30008F8B988F91111092AD04188A198A1A8A53
:104E400086E0FE017396DE011A9601900D928A9516
:104E5000E1F78091EE0182FF24C00E94AA05209113
:104E6000D1013091D201821B930B8838934158F1C4
:104E70008091D30182FB882780F991E0892780FF08
:104E800003C082E00E94ED0C0E94AA052091DC0183
:104E90003091DD01821B930B8838934110F00E9402
:104EA000070C8E85811111C00A851B852C853D85D7
:104EB0004E855F85688979898A890E94B9256E96B1
:104EC000E2E10C945F3580E0DACF61E0CE010A9632
:104ED0000E94F50E6C018F8540E5C4164CE7D406A0
:104EE00051F48823F1F081E080931D0181E090E08E
:104EF00080FDDACFE4CF61E5C6166CE7D60629F46B
:104F0000882379F00E946B26F1CF72E5C7167CE703
:104F1000D70639F4882329F080911D01882319F3DD
:104F2000F1CF86EEE82E83E0F82E512CB12CA12C87
:104F300088248394912CCE0101969A8F898F4424E2
:104F40004394F7014081518166246A94762C20E0D5
:104F5000822F90E0FC01EE0FFF1FE40FF51F608130
:104F600071816115710539F0C616D70609F0C301C4
:104F70002F5F3C01EDCF10E0FFEF6F167F0609F4C5
:104F800043C0F701448110911D01812F411180E040
:104F9000182F1170F701358086819F85992309F4B8
:104FA000F5C0112309F4F2C0311014C0A401062C7D
:104FB00001C0440F0A94EAF7842B86838091E303AF
:104FC0009091E403C29730F462E370E07093E403DD
:104FD0006093E303C40102C0880F991F2A95E2F78A
:104FE0000197F70126812817190671F48091910421
:104FF00090919204009709F44AC00E948F05C397CC
:1050000008F445C0F7014482512AFFEFAF1ABF0AE6
:1050100027E0E20EF11C38E0A316B10409F091CFAD
:105020008F85882309F412C1552009F40FC10E940D
:10503000AA05909392048093910480911E04883075
:1050400010F591E0980F90931E0499E0FE013A96B6
:10505000DE01119601900D929A95E1F74DE0849F43
:10506000C0011124815E9B4F29E0FE013196DC01D5
:1050700001900D922A95E1F72FEF3FEFFC01328767
:105080002187D486C38681E05826852D31CF809133
:105090008F0450919004982FF0E0E0E0851314C045
:1050A00090938F04EE15FF0509F4AECF90E0FC015C
:1050B000EE0FFF1FE957FB4FB182A082019683706C
:1050C000992780939004A0CF682E712CF301EE0FE6
:1050D000FF1FE957FB4F20813181F7E0F29FD0019C
:1050E000F39FB00D1124AA51BC4F2D913C91119703
:1050F0003E8F2D8F40E020E030E0E32FF0E0EE0F18
:10510000FF1F6D8D7E8DE60FF71F208031802114EB
:105110003104E1F0F7010190F081E02DFC8FEB8F7D
:1051200020E005C02616370609F4412F2F5FE22F35
:10513000F0E0EE0FFF1F6B8D7C8DE60FF71F608197
:1051400071816115710571F73F5FD7CF4423D9F0A5
:10515000FD01231708F4F7014482EE16FF0621F43F
:1051600090938F04142F50CF981307C0AE17BF072A
:1051700021F4C3010196982F937093012F5F3F4F45
:10518000822F83708BCFF0E0E0E0F7CF90E031101A
:1051900020C0B40102C0660F771F2A95E2F79B0179
:1051A000215031092817390731F4442309F44CC040
:1051B000C5010E94A906C401062C01C0880F0A94EB
:1051C000EAF7982F9095F701868189238683132D1E
:1051D0001BCFAC01062C02C0559547950A94E2F707
:1051E000BA01617077279C012150310982239323F2
:1051F000892B31F5672B21F1F70182819381892B6E
:10520000E1F0E98DFA8D27E011922A95E9F70E94E5
:10521000AA05282F8B839C8334E03D83F70182818C
:105220009381782F8887998709811A813C8144E08E
:105230005E816F81892F0E94B925F7011582BBCF4E
:10524000F42FF1703F2EB7CF312EB5CF90918F0450
:1052500080919004981719F00E947A2614CF0E942A
:10526000222610929204109291040E94D7060BCF2E
:10527000A6E0B0E0EEE3F9E20C9451358C01909396
:10528000750280937402011580E21807C0F4802F24
:105290000E94CD16C8010E942A0D9801205E310996
:1052A0002830310518F00115110531F40E94BC16A3
:1052B0002696E4E00C946D350E94AB16F9CF80EF92
:1052C00089838A830E94AA058160682F9C838B83CF
:1052D00049815A817C8181E090E00E940E27E8CFCD
:1052E0000F931F93CF93DF938C01EB016EE772E076
:1052F0008C2F0E94C20F892B71F4DD27CA58DD4F15
:105300008881F801128218828330F1F048F48130EC
:1053100059F0823081F0DF91CF911F910F91089564
:105320008430B9F08530B9F780917E0290917F0288
:10533000009789F306C080918002909181020097C6
:1053400099F30E943829E7CF8091820290918302DD
:10535000F6CF8091840290918502009791F7209179
:105360007E0230917F02809180029091810221150E
:105370003105F1F2009729F7C901E3CFCF93DF930D
:10538000EC010E944B1BCE010E943829DF91CF9186
:1053900008950F931F93CF93DF938C01862F6EE7B1
:1053A00072E00E94C20F892BB1F4C0917E02D091AD
:1053B0007F02209781F0F8018281833051F4CE0181
:1053C0000E94BE29CE010E94BE29CE010E94BE29A4
:1053D00002C08430D0F7DF91CF911F910F910895D3
:1053E0000F931F93CF93DF938C01EB016EE772E075
:1053F0008C2F0E94C20F892B09F05CC0FE01FF2791
:10540000D80112968C911297EA58FD4F8130B9F469
:1054100015969C9192FF02C080830AC090FFFCCF3A
:1054200082E0808380918002909181020097B9F49C
:1054300080917E0290917F020097E1F110C082304E
:10544000B9F515968C9182FD28C080FD0BC083E0D4
:1054500080838091820290918302009701F10E94E3
:105460004B1B28C084E08083809184029091850248
:105470000097A9F780917E0290917F020097F9F042
:105480000E94BE298091800290918102009739F795
:1054900080917E0290917F02E2CF85E080838091AF
:1054A0007E0290917F02009729F00E94BE29F0CFE2
:1054B00086E08083DF91CF911F910F9108958091B5
:1054C000800290918102B8CFA6E0B0E0EAE6FAE26D
:1054D0000C9451350E94AA058C018091E0019091B5
:1054E000E1018017910781F019821A820E94AA05B2
:1054F000682F49815A81792F80E090E00E940E2721
:105500001093E1010093E0012696E4E00C946D35E0
:105510001F920F920FB60F9211242F933F934F9328
:105520005F936F937F938F939F93AF93BF93CF932B
:10553000EF93FF93C091E900CF708091EC0010923F
:10554000E9008091F000877F8093F00078940E94BA
:105550007D131092E9008091F00088608093F00044
:10556000C093E900FF91EF91CF91BF91AF919F91CF
:105570008F917F916F915F914F913F912F910F90FC
:105580000FBE0F901F9018951F920F920FB60F929B
:1055900011242F933F934F935F936F937F938F9338
:1055A0009F93AF93BF93EF93FF938091E10082FFAE
:1055B00009C08091E20082FF05C08091E1008B7FED
:1055C0008093E1008091DA0080FF24C08091D800B0
:1055D00080FF20C08091DA008E7F8093DA00809176
:1055E000D90080FF9BC080E189BD82E189BD09B4FB
:1055F00000FEFDCF81E08093C9048091BC0481113D
:1056000009C00E941F040E94BE048091E2008460D1
:105610008093E2008091E10080FF17C08091E2005A
:1056200080FF13C08091E2008E7F8093E200809122
:10563000E20080618093E2008091D80080628093D4
:10564000D80019BC85E08093C9048091E10084FFF3
:1056500029C08091E20084FF25C080E189BD82E1FC
:1056600089BD09B400FEFDCF8091D8008F7D809365
:10567000D8008091E1008F7E8093E1008091E2006C
:105680008F7E8093E2008091E20081608093E2004F
:105690008091CA04882309F447C084E08093C90438
:1056A0008091C9048091E10083FF27C08091E200CE
:1056B00083FF23C08091E100877F8093E10082E037
:1056C0008093C9041092CA048091E1008E7F809378
:1056D000E1008091E2008E7F8093E2008091E20001
:1056E00080618093E20042E060E080E00E948C04F0
:1056F0008091F00088608093F000FF91EF91BF915E
:10570000AF919F918F917F916F915F914F913F9159
:105710002F910F900FBE0F901F90189519BC1092EB
:10572000C9041092BC0476CF8091E30087FD02C0CB
:1057300081E0B4CF83E0B2CF78941F920F920FB67E
:105740000F9211248F939F93AF93BF938091B804CE
:105750009091B904A091BA04B091BB040196A11D27
:10576000B11D8093B8049093B904A093BA04B09388
:10577000BB04BF91AF919F918F910F900FBE0F907F
:105780001F9018951F920F920FB60F9211248F93AE
:105790009F93AF93BF938091B704811113C0809101
:1057A000B8049091B904A091BA04B091BB04419699
:1057B000A11DB11D8093B8049093B904A093BA04BD
:1057C000B093BB04BF91AF919F918F910F900FBE8B
:1057D0000F901F901895A0E3B0E0E1EFFBE20C946E
:1057E000433585B7806885BF85B7806885BF84B736
:1057F000877F84BF0FB6F894A89580916000886178
:1058000080936000109260000FBE80E890E00FB6B9
:10581000F89480936100909361000FBE85EE99E04B
:105820009093A9018093A8010E94EA060E947F102C
:105830000E94F30F0E941F040E94BE048091E200A8
:1058400084608093E20078948091C904882399F061
:105850001091E9001F708091EC0080FF79C080E812
:10586000182B1092E9008091E80083FD0E947D13BF
:105870001F701093E90082E084BD93E095BD9AEF1C
:1058800097BD80936E000E942B0E811102C00E9472
:10589000B20F00E611E0F7E6EF2EF1E0FF2ED8019F
:1058A0008D918D018F3F11F00E94E709E016F106FE
:1058B000B1F707E611E0F80181918F018F3F11F0F8
:1058C0000E94E709F1E00D361F07A9F787E0E0E045
:1058D000F2E0DF01282F1D922A95E9F7E5EEF1E0CD
:1058E000DF011D928A95E9F790E080E00E94303454
:1058F000853E9E4F21F40E942B0E811102C00E9412
:10590000371882E090E00E9422348093940484E06F
:1059100090E00E9430349093EE018093ED010E945C
:105920008817EFEFF6E721E0E150F0402040E1F783
:1059300000C000000E9488178091000280FF0AC00A
:105940006FEF7FEF90E080E00E9464340E947E055C
:1059500080E086CF83E090E00E9422340E94270DF1
:105960008091EF0181117FC088E090E00E942A348D
:105970004B015C0183E290E00E942234282F30E04A
:1059800040E050E060E070E080E090E000E20E94E3
:105990007A35282939294A295B2920936C023093CA
:1059A0006D0240936E0250936F0260937002709389
:1059B000710280937202909373022C7F09F041C0B0
:1059C00025E020936C0210926D023FEF30936E023F
:1059D00030936F021092700230E04FEF5FEF60E0A3
:1059E0000E94701188E090E00E942A346B017C01D3
:1059F00083E290E00E942234282F30E040E050E023
:105A000060E070E080E090E00E947A35B22FA32F32
:105A1000F42FE52F5B0197018601BC29A12BFE29FC
:105A2000E32BB0936C02A0936D02F0936E02E093AF
:105A30006F0260937002B092710280937202909331
:105A400073020E943B07109210020E94E8068091A8
:105A50006C0280FF05C060E0869586950E949112D9
:105A600081E08093EF0185E091E09093B40480930E
:105A7000B304E8E14E2E512C332433942224239492
:105A80008091C90400E112E1853009F491C00E94BF
:105A9000881702EF11E070E0E72E72E0F72E29EF91
:105AA00031E0D701F80191918D912E173F0709F44C
:105AB0009BC09817C1F3D12CD701CD907D01F8017F
:105AC00091908F019C1421F1B12CAA24A3949C24C1
:105AD000892D8A21A9F0BBA6DCA60E94AA059EA753
